{
   "abi": [
      {
         "type": "constructor",
         "inputs": [
            {
               "name": "controller_",
               "type": "address",
               "internalType": "contract IController"
            },
            {
               "name": "asset_",
               "type": "address",
               "internalType": "contract IERC20Metadata"
            }
         ],
         "stateMutability": "nonpayable"
      },
      {
         "type": "function",
         "name": "allowance",
         "inputs": [
            {
               "name": "owner",
               "type": "address",
               "internalType": "address"
            },
            {
               "name": "spender",
               "type": "address",
               "internalType": "address"
            }
         ],
         "outputs": [
            {
               "name": "",
               "type": "uint256",
               "internalType": "uint256"
            }
         ],
         "stateMutability": "view"
      },
      {
         "type": "function",
         "name": "approve",
         "inputs": [
            {
               "name": "spender",
               "type": "address",
               "internalType": "address"
            },
            {
               "name": "amount",
               "type": "uint256",
               "internalType": "uint256"
            }
         ],
         "outputs": [
            {
               "name": "",
               "type": "bool",
               "internalType": "bool"
            }
         ],
         "stateMutability": "nonpayable"
      },
      {
         "type": "function",
         "name": "asset",
         "inputs": [],
         "outputs": [
            {
               "name": "",
               "type": "address",
               "internalType": "contract IERC20Metadata"
            }
         ],
         "stateMutability": "view"
      },
      {
         "type": "function",
         "name": "balanceOf",
         "inputs": [
            {
               "name": "account",
               "type": "address",
               "internalType": "address"
            }
         ],
         "outputs": [
            {
               "name": "",
               "type": "uint256",
               "internalType": "uint256"
            }
         ],
         "stateMutability": "view"
      },
      {
         "type": "function",
         "name": "controller",
         "inputs": [],
         "outputs": [
            {
               "name": "",
               "type": "address",
               "internalType": "contract IController"
            }
         ],
         "stateMutability": "view"
      },
      {
         "type": "function",
         "name": "decimals",
         "inputs": [],
         "outputs": [
            {
               "name": "",
               "type": "uint8",
               "internalType": "uint8"
            }
         ],
         "stateMutability": "view"
      },
      {
         "type": "function",
         "name": "decreaseAllowance",
         "inputs": [
            {
               "name": "spender",
               "type": "address",
               "internalType": "address"
            },
            {
               "name": "subtractedValue",
               "type": "uint256",
               "internalType": "uint256"
            }
         ],
         "outputs": [
            {
               "name": "",
               "type": "bool",
               "internalType": "bool"
            }
         ],
         "stateMutability": "nonpayable"
      },
      {
         "type": "function",
         "name": "deposit",
         "inputs": [
            {
               "name": "amount",
               "type": "uint256",
               "internalType": "uint256"
            }
         ],
         "outputs": [],
         "stateMutability": "nonpayable"
      },
      {
         "type": "function",
         "name": "getBorrowRate",
         "inputs": [
            {
               "name": "excessOpenInterest_",
               "type": "int256",
               "internalType": "int256"
            }
         ],
         "outputs": [
            {
               "name": "",
               "type": "int256",
               "internalType": "int256"
            }
         ],
         "stateMutability": "view"
      },
      {
         "type": "function",
         "name": "increaseAllowance",
         "inputs": [
            {
               "name": "spender",
               "type": "address",
               "internalType": "address"
            },
            {
               "name": "addedValue",
               "type": "uint256",
               "internalType": "uint256"
            }
         ],
         "outputs": [
            {
               "name": "",
               "type": "bool",
               "internalType": "bool"
            }
         ],
         "stateMutability": "nonpayable"
      },
      {
         "type": "function",
         "name": "maxBorrowRate",
         "inputs": [],
         "outputs": [
            {
               "name": "",
               "type": "int256",
               "internalType": "int256"
            }
         ],
         "stateMutability": "view"
      },
      {
         "type": "function",
         "name": "minBorrowRate",
         "inputs": [],
         "outputs": [
            {
               "name": "",
               "type": "int256",
               "internalType": "int256"
            }
         ],
         "stateMutability": "view"
      },
      {
         "type": "function",
         "name": "name",
         "inputs": [],
         "outputs": [
            {
               "name": "",
               "type": "string",
               "internalType": "string"
            }
         ],
         "stateMutability": "view"
      },
      {
         "type": "function",
         "name": "previewDeposit",
         "inputs": [
            {
               "name": "assets",
               "type": "uint256",
               "internalType": "uint256"
            }
         ],
         "outputs": [
            {
               "name": "",
               "type": "uint256",
               "internalType": "uint256"
            }
         ],
         "stateMutability": "view"
      },
      {
         "type": "function",
         "name": "previewRedeem",
         "inputs": [
            {
               "name": "shares",
               "type": "uint256",
               "internalType": "uint256"
            }
         ],
         "outputs": [
            {
               "name": "",
               "type": "uint256",
               "internalType": "uint256"
            }
         ],
         "stateMutability": "view"
      },
      {
         "type": "function",
         "name": "ratio",
         "inputs": [],
         "outputs": [
            {
               "name": "",
               "type": "uint256",
               "internalType": "uint256"
            }
         ],
         "stateMutability": "view"
      },
      {
         "type": "function",
         "name": "redeem",
         "inputs": [
            {
               "name": "shares",
               "type": "uint256",
               "internalType": "uint256"
            }
         ],
         "outputs": [],
         "stateMutability": "nonpayable"
      },
      {
         "type": "function",
         "name": "requestPayout",
         "inputs": [
            {
               "name": "amount",
               "type": "uint256",
               "internalType": "uint256"
            }
         ],
         "outputs": [],
         "stateMutability": "nonpayable"
      },
      {
         "type": "function",
         "name": "setMaxBorrowRate",
         "inputs": [
            {
               "name": "rate",
               "type": "int256",
               "internalType": "int256"
            }
         ],
         "outputs": [],
         "stateMutability": "nonpayable"
      },
      {
         "type": "function",
         "name": "setMinBorrowRate",
         "inputs": [
            {
               "name": "rate",
               "type": "int256",
               "internalType": "int256"
            }
         ],
         "outputs": [],
         "stateMutability": "nonpayable"
      },
      {
         "type": "function",
         "name": "symbol",
         "inputs": [],
         "outputs": [
            {
               "name": "",
               "type": "string",
               "internalType": "string"
            }
         ],
         "stateMutability": "view"
      },
      {
         "type": "function",
         "name": "totalAssets",
         "inputs": [],
         "outputs": [
            {
               "name": "",
               "type": "uint256",
               "internalType": "uint256"
            }
         ],
         "stateMutability": "view"
      },
      {
         "type": "function",
         "name": "totalSupply",
         "inputs": [],
         "outputs": [
            {
               "name": "",
               "type": "uint256",
               "internalType": "uint256"
            }
         ],
         "stateMutability": "view"
      },
      {
         "type": "function",
         "name": "transfer",
         "inputs": [
            {
               "name": "to",
               "type": "address",
               "internalType": "address"
            },
            {
               "name": "amount",
               "type": "uint256",
               "internalType": "uint256"
            }
         ],
         "outputs": [
            {
               "name": "",
               "type": "bool",
               "internalType": "bool"
            }
         ],
         "stateMutability": "nonpayable"
      },
      {
         "type": "function",
         "name": "transferFrom",
         "inputs": [
            {
               "name": "from",
               "type": "address",
               "internalType": "address"
            },
            {
               "name": "to",
               "type": "address",
               "internalType": "address"
            },
            {
               "name": "amount",
               "type": "uint256",
               "internalType": "uint256"
            }
         ],
         "outputs": [
            {
               "name": "",
               "type": "bool",
               "internalType": "bool"
            }
         ],
         "stateMutability": "nonpayable"
      },
      {
         "type": "event",
         "name": "Approval",
         "inputs": [
            {
               "name": "owner",
               "type": "address",
               "indexed": true,
               "internalType": "address"
            },
            {
               "name": "spender",
               "type": "address",
               "indexed": true,
               "internalType": "address"
            },
            {
               "name": "value",
               "type": "uint256",
               "indexed": false,
               "internalType": "uint256"
            }
         ],
         "anonymous": false
      },
      {
         "type": "event",
         "name": "Deposit",
         "inputs": [
            {
               "name": "sender",
               "type": "address",
               "indexed": true,
               "internalType": "address"
            },
            {
               "name": "assets",
               "type": "uint256",
               "indexed": false,
               "internalType": "uint256"
            },
            {
               "name": "shares",
               "type": "uint256",
               "indexed": false,
               "internalType": "uint256"
            }
         ],
         "anonymous": false
      },
      {
         "type": "event",
         "name": "MaxBorrowRateSet",
         "inputs": [
            {
               "name": "rate",
               "type": "int256",
               "indexed": false,
               "internalType": "int256"
            }
         ],
         "anonymous": false
      },
      {
         "type": "event",
         "name": "MinBorrowRateSet",
         "inputs": [
            {
               "name": "rate",
               "type": "int256",
               "indexed": false,
               "internalType": "int256"
            }
         ],
         "anonymous": false
      },
      {
         "type": "event",
         "name": "ProtocolSet",
         "inputs": [
            {
               "name": "protocol",
               "type": "address",
               "indexed": true,
               "internalType": "address"
            }
         ],
         "anonymous": false
      },
      {
         "type": "event",
         "name": "Redeem",
         "inputs": [
            {
               "name": "sender",
               "type": "address",
               "indexed": true,
               "internalType": "address"
            },
            {
               "name": "assets",
               "type": "uint256",
               "indexed": false,
               "internalType": "uint256"
            },
            {
               "name": "shares",
               "type": "uint256",
               "indexed": false,
               "internalType": "uint256"
            }
         ],
         "anonymous": false
      },
      {
         "type": "event",
         "name": "Transfer",
         "inputs": [
            {
               "name": "from",
               "type": "address",
               "indexed": true,
               "internalType": "address"
            },
            {
               "name": "to",
               "type": "address",
               "indexed": true,
               "internalType": "address"
            },
            {
               "name": "value",
               "type": "uint256",
               "indexed": false,
               "internalType": "uint256"
            }
         ],
         "anonymous": false
      }
   ],
   "bytecode": {
      "object": "0x60a06040523480156200001157600080fd5b5060405162001c4938038062001c498339810160408190526200003491620001e7565b6040518060400160405280601a81526020017f5065707079204c697175696469747920506f6f6c20546f6b656e0000000000008152506040518060400160405280600381526020016214141560ea1b8152508160039081620000979190620002cd565b506004620000a68282620002cd565b5050506001600160a01b0382166200011a5760405162461bcd60e51b8152602060048201526037602482015260008051602062001c2983398151915260448201527f6c696420636f6e74726f6c6c657220616464726573732e00000000000000000060648201526084015b60405180910390fd5b6001600160a01b0381166200017c5760405162461bcd60e51b8152602060048201526032602482015260008051602062001c298339815191526044820152713634b21030b9b9b2ba1030b2323932b9b99760711b606482015260840162000111565b600880546001600160a01b038085166001600160a01b0319928316179092556005805492841692909116919091179055620001b5601290565b620001c290600a620004ae565b60805250620004c69050565b6001600160a01b0381168114620001e457600080fd5b50565b60008060408385031215620001fb57600080fd5b82516200020881620001ce565b60208401519092506200021b81620001ce565b809150509250929050565b634e487b7160e01b600052604160045260246000fd5b600181811c908216806200025157607f821691505b6020821081036200027257634e487b7160e01b600052602260045260246000fd5b50919050565b601f821115620002c8576000816000526020600020601f850160051c81016020861015620002a35750805b601f850160051c820191505b81811015620002c457828155600101620002af565b5050505b505050565b81516001600160401b03811115620002e957620002e962000226565b6200030181620002fa84546200023c565b8462000278565b602080601f831160018114620003395760008415620003205750858301515b600019600386901b1c1916600185901b178555620002c4565b600085815260208120601f198616915b828110156200036a5788860151825594840194600190910190840162000349565b5085821015620003895787850151600019600388901b60f8161c191681555b5050505050600190811b01905550565b634e487b7160e01b600052601160045260246000fd5b600181815b80851115620003f0578160001904821115620003d457620003d462000399565b80851615620003e257918102915b93841c9390800290620003b4565b509250929050565b6000826200040957506001620004a8565b816200041857506000620004a8565b81600181146200043157600281146200043c576200045c565b6001915050620004a8565b60ff84111562000450576200045062000399565b50506001821b620004a8565b5060208310610133831016604e8410600b841016171562000481575081810a620004a8565b6200048d8383620003af565b8060001904821115620004a457620004a462000399565b0290505b92915050565b6000620004bf60ff841683620003f8565b9392505050565b608051611747620004e26000396000610a3201526117476000f3fe608060405234801561001057600080fd5b50600436106101735760003560e01c80638f97e3a0116100de578063c3da1b6011610097578063dd62ed3e11610071578063dd62ed3e14610318578063ef8b30f71461032b578063f4f5c6c41461033e578063f77c47911461035157600080fd5b8063c3da1b60146102df578063ce409f5d146102f2578063db006a751461030557600080fd5b80638f97e3a01461028057806395d89b4114610295578063a457c2d71461029d578063a9059cbb146102b0578063b6b55f25146102c3578063c0d4cdd7146102d657600080fd5b8063313ce56711610130578063313ce567146101ef57806338d52e0f146101fe57806339509351146102295780634cdad5061461023c57806370a082311461024f57806371ca337d1461027857600080fd5b806301e1d1141461017857806306fdde0314610193578063095ea7b3146101a85780630fa42b5a146101cb57806318160ddd146101d457806323b872dd146101dc575b600080fd5b610180610364565b6040519081526020015b60405180910390f35b61019b6103d6565b60405161018a9190611337565b6101bb6101b6366004611386565b610468565b604051901515815260200161018a565b61018060075481565b600254610180565b6101bb6101ea3660046113b0565b610482565b6040516012815260200161018a565b600554610211906001600160a01b031681565b6040516001600160a01b03909116815260200161018a565b6101bb610237366004611386565b6104a6565b61018061024a3660046113ec565b6104c8565b61018061025d366004611405565b6001600160a01b031660009081526020819052604090205490565b610180610501565b61029361028e3660046113ec565b61053f565b005b61019b610630565b6101bb6102ab366004611386565b61063f565b6101bb6102be366004611386565b6106ba565b6102936102d13660046113ec565b6106c8565b61018060065481565b6102936102ed3660046113ec565b6107a5565b6102936103003660046113ec565b6107e1565b6102936103133660046113ec565b610816565b610180610326366004611420565b61095e565b6101806103393660046113ec565b610989565b61018061034c3660046113ec565b610a89565b600854610211906001600160a01b031681565b6005546040516370a0823160e01b81523060048201526000916001600160a01b0316906370a0823190602401602060405180830381865afa1580156103ad573d6000803e3d6000fd5b505050506040513d601f19601f820116820180604052508101906103d19190611453565b905090565b6060600380546103e59061146c565b80601f01602080910402602001604051908101604052809291908181526020018280546104119061146c565b801561045e5780601f106104335761010080835404028352916020019161045e565b820191906000526020600020905b81548152906001019060200180831161044157829003601f168201915b5050505050905090565b600033610476818585610adb565b60019150505b92915050565b600033610490858285610bff565b61049b858585610c79565b506001949350505050565b6000336104768185856104b9838361095e565b6104c391906114bc565b610adb565b60006104d360025490565b6000036104e257506000919050565b6002546104ed610364565b6104f790846114cf565b61047c91906114fc565b600061050b610364565b6000036105185750600090565b610520610364565b60025461053590670de0b6b3a76400006114cf565b6103d191906114fc565b60085460405163e1aecb0360e01b81523360048201526001600160a01b039091169063e1aecb0390602401602060405180830381865afa158015610587573d6000803e3d6000fd5b505050506040513d601f19601f820116820180604052508101906105ab9190611510565b6106165760405162461bcd60e51b815260206004820152603160248201527f4c6971756964697479506f6f6c3a3a6f6e6c795472616465506169723a20496e6044820152703b30b634b2103a3930b232903830b4b91760791b60648201526084015b60405180910390fd5b60055461062d906001600160a01b03163383610e1d565b50565b6060600480546103e59061146c565b6000338161064d828661095e565b9050838110156106ad5760405162461bcd60e51b815260206004820152602560248201527f45524332303a2064656372656173656420616c6c6f77616e63652062656c6f77604482015264207a65726f60d81b606482015260840161060d565b61049b8286868403610adb565b600033610476818585610c79565b600081116107365760405162461bcd60e51b815260206004820152603560248201527f4c6971756964697479506f6f6c3a3a6465706f7369743a20416d6f756e74206d60448201527407573742062652067726561746572207468616e203605c1b606482015260840161060d565b600061074182610989565b905061074d3382610e85565b600554610765906001600160a01b0316333085610f44565b604080518381526020810183905233917f90890809c654f11d6e72a28fa60149770a0d11ec6c92319d6ceb2bb0a4ea1a1591015b60405180910390a25050565b60078190556040518181527f88853932dd42c441eebcd3db91ef1bb6de1134788e44a01782122f7390c3b737906020015b60405180910390a150565b60068190556040518181527f28d6710b307baca3ef1ef163eeb61f0fb4b45eefac46bac6ff683e73a1e2658e906020016107d6565b600081116108845760405162461bcd60e51b815260206004820152603560248201527f4c6971756964697479506f6f6c3a3a72656465656d3a20536861726573206d7560448201527439ba1031329033b932b0ba32b9103a3430b710181760591b606482015260840161060d565b336000908152602081905260409020548111156108f85760405162461bcd60e51b815260206004820152602c60248201527f4c6971756964697479506f6f6c3a3a72656465656d3a20496e7375666669636960448201526b32b73a103130b630b731b29760a11b606482015260840161060d565b6000610903826104c8565b905061090f3383610f7c565b600554610926906001600160a01b03163383610e1d565b604080518281526020810184905233917fe5b754fb1abb7f01b499791d0b820ae3b6af3424ac1c59768edb53f4ec31a9299101610799565b6001600160a01b03918216600090815260016020908152604080832093909416825291909152205490565b60008061099560025490565b90506000831180156109a75750600081115b610a6657600560009054906101000a90046001600160a01b03166001600160a01b031663313ce5676040518163ffffffff1660e01b8152600401602060405180830381865afa1580156109fe573d6000803e3d6000fd5b505050506040513d601f19601f82011682018060405250810190610a229190611532565b610a2d90600a611639565b610a577f0000000000000000000000000000000000000000000000000000000000000000856114cf565b610a6191906114fc565b610a82565b610a6e610364565b610a7882856114cf565b610a8291906114fc565b9392505050565b600080610a94610364565b905080600003610aa8575050600654919050565b8083600654600754610aba9190611648565b610ac4919061166f565b610ace919061169f565b600654610a8291906116cd565b6001600160a01b038316610b3d5760405162461bcd60e51b8152602060048201526024808201527f45524332303a20617070726f76652066726f6d20746865207a65726f206164646044820152637265737360e01b606482015260840161060d565b6001600160a01b038216610b9e5760405162461bcd60e51b815260206004820152602260248201527f45524332303a20617070726f766520746f20746865207a65726f206164647265604482015261737360f01b606482015260840161060d565b6001600160a01b0383811660008181526001602090815260408083209487168084529482529182902085905590518481527f8c5be1e5ebec7d5bd14f71427d1e84f3dd0314c0f7b2291e5b200ac8c7c3b925910160405180910390a3505050565b6000610c0b848461095e565b90506000198114610c735781811015610c665760405162461bcd60e51b815260206004820152601d60248201527f45524332303a20696e73756666696369656e7420616c6c6f77616e6365000000604482015260640161060d565b610c738484848403610adb565b50505050565b6001600160a01b038316610cdd5760405162461bcd60e51b815260206004820152602560248201527f45524332303a207472616e736665722066726f6d20746865207a65726f206164604482015264647265737360d81b606482015260840161060d565b6001600160a01b038216610d3f5760405162461bcd60e51b815260206004820152602360248201527f45524332303a207472616e7366657220746f20746865207a65726f206164647260448201526265737360e81b606482015260840161060d565b6001600160a01b03831660009081526020819052604090205481811015610db75760405162461bcd60e51b815260206004820152602660248201527f45524332303a207472616e7366657220616d6f756e7420657863656564732062604482015265616c616e636560d01b606482015260840161060d565b6001600160a01b03848116600081815260208181526040808320878703905593871680835291849020805487019055925185815290927fddf252ad1be2c89b69c2b068fc378daa952ba7f163c4a11628f55a4df523b3ef910160405180910390a3610c73565b6040516001600160a01b038316602482015260448101829052610e8090849063a9059cbb60e01b906064015b60408051601f198184030181529190526020810180516001600160e01b03166001600160e01b0319909316929092179091526110ae565b505050565b6001600160a01b038216610edb5760405162461bcd60e51b815260206004820152601f60248201527f45524332303a206d696e7420746f20746865207a65726f206164647265737300604482015260640161060d565b8060026000828254610eed91906114bc565b90915550506001600160a01b038216600081815260208181526040808320805486019055518481527fddf252ad1be2c89b69c2b068fc378daa952ba7f163c4a11628f55a4df523b3ef910160405180910390a35050565b6040516001600160a01b0380851660248301528316604482015260648101829052610c739085906323b872dd60e01b90608401610e49565b6001600160a01b038216610fdc5760405162461bcd60e51b815260206004820152602160248201527f45524332303a206275726e2066726f6d20746865207a65726f206164647265736044820152607360f81b606482015260840161060d565b6001600160a01b038216600090815260208190526040902054818110156110505760405162461bcd60e51b815260206004820152602260248201527f45524332303a206275726e20616d6f756e7420657863656564732062616c616e604482015261636560f01b606482015260840161060d565b6001600160a01b0383166000818152602081815260408083208686039055600280548790039055518581529192917fddf252ad1be2c89b69c2b068fc378daa952ba7f163c4a11628f55a4df523b3ef910160405180910390a3505050565b6000611103826040518060400160405280602081526020017f5361666545524332303a206c6f772d6c6576656c2063616c6c206661696c6564815250856001600160a01b03166111839092919063ffffffff16565b90508051600014806111245750808060200190518101906111249190611510565b610e805760405162461bcd60e51b815260206004820152602a60248201527f5361666545524332303a204552433230206f7065726174696f6e20646964206e6044820152691bdd081cdd58d8d9595960b21b606482015260840161060d565b6060611192848460008561119a565b949350505050565b6060824710156111fb5760405162461bcd60e51b815260206004820152602660248201527f416464726573733a20696e73756666696369656e742062616c616e636520666f6044820152651c8818d85b1b60d21b606482015260840161060d565b600080866001600160a01b0316858760405161121791906116f5565b60006040518083038185875af1925050503d8060008114611254576040519150601f19603f3d011682016040523d82523d6000602084013e611259565b606091505b509150915061126a87838387611275565b979650505050505050565b606083156112e45782516000036112dd576001600160a01b0385163b6112dd5760405162461bcd60e51b815260206004820152601d60248201527f416464726573733a2063616c6c20746f206e6f6e2d636f6e7472616374000000604482015260640161060d565b5081611192565b61119283838151156112f95781518083602001fd5b8060405162461bcd60e51b815260040161060d9190611337565b60005b8381101561132e578181015183820152602001611316565b50506000910152565b6020815260008251806020840152611356816040850160208701611313565b601f01601f19169190910160400192915050565b80356001600160a01b038116811461138157600080fd5b919050565b6000806040838503121561139957600080fd5b6113a28361136a565b946020939093013593505050565b6000806000606084860312156113c557600080fd5b6113ce8461136a565b92506113dc6020850161136a565b9150604084013590509250925092565b6000602082840312156113fe57600080fd5b5035919050565b60006020828403121561141757600080fd5b610a828261136a565b6000806040838503121561143357600080fd5b61143c8361136a565b915061144a6020840161136a565b90509250929050565b60006020828403121561146557600080fd5b5051919050565b600181811c9082168061148057607f821691505b6020821081036114a057634e487b7160e01b600052602260045260246000fd5b50919050565b634e487b7160e01b600052601160045260246000fd5b8082018082111561047c5761047c6114a6565b808202811582820484141761047c5761047c6114a6565b634e487b7160e01b600052601260045260246000fd5b60008261150b5761150b6114e6565b500490565b60006020828403121561152257600080fd5b81518015158114610a8257600080fd5b60006020828403121561154457600080fd5b815160ff81168114610a8257600080fd5b600181815b80851115611590578160001904821115611576576115766114a6565b8085161561158357918102915b93841c939080029061155a565b509250929050565b6000826115a75750600161047c565b816115b45750600061047c565b81600181146115ca57600281146115d4576115f0565b600191505061047c565b60ff8411156115e5576115e56114a6565b50506001821b61047c565b5060208310610133831016604e8410600b8410161715611613575081810a61047c565b61161d8383611555565b8060001904821115611631576116316114a6565b029392505050565b6000610a8260ff841683611598565b8181036000831280158383131683831282161715611668576116686114a6565b5092915050565b80820260008212600160ff1b8414161561168b5761168b6114a6565b818105831482151761047c5761047c6114a6565b6000826116ae576116ae6114e6565b600160ff1b8214600019841416156116c8576116c86114a6565b500590565b80820182811260008312801582168215821617156116ed576116ed6114a6565b505092915050565b60008251611707818460208701611313565b919091019291505056fea26469706673582212206a78a5c5f6a3f152eeb115b210bfac7095c667c8aac7264ab68a3c5073262b6164736f6c634300081800334c6971756964697479506f6f6c3a3a636f6e7374727563746f723a20496e7661",
      "linkReferences": {}
   },
   "methodIdentifiers": {
      "allowance(address,address)": "dd62ed3e",
      "approve(address,uint256)": "095ea7b3",
      "asset()": "38d52e0f",
      "balanceOf(address)": "70a08231",
      "controller()": "f77c4791",
      "decimals()": "313ce567",
      "decreaseAllowance(address,uint256)": "a457c2d7",
      "deposit(uint256)": "b6b55f25",
      "getBorrowRate(int256)": "f4f5c6c4",
      "increaseAllowance(address,uint256)": "39509351",
      "maxBorrowRate()": "0fa42b5a",
      "minBorrowRate()": "c0d4cdd7",
      "name()": "06fdde03",
      "previewDeposit(uint256)": "ef8b30f7",
      "previewRedeem(uint256)": "4cdad506",
      "ratio()": "71ca337d",
      "redeem(uint256)": "db006a75",
      "requestPayout(uint256)": "8f97e3a0",
      "setMaxBorrowRate(int256)": "c3da1b60",
      "setMinBorrowRate(int256)": "ce409f5d",
      "symbol()": "95d89b41",
      "totalAssets()": "01e1d114",
      "totalSupply()": "18160ddd",
      "transfer(address,uint256)": "a9059cbb",
      "transferFrom(address,address,uint256)": "23b872dd"
   },
   "id": 49
}