{"abi":[{"type":"function","name":"getPrice","inputs":[{"name":"_token","type":"address","internalType":"address"},{"name":"","type":"bytes[]","internalType":"bytes[]"}],"outputs":[{"name":"","type":"int256","internalType":"int256"}],"stateMutability":"payable"},{"type":"function","name":"prices","inputs":[{"name":"","type":"address","internalType":"address"}],"outputs":[{"name":"","type":"int256","internalType":"int256"}],"stateMutability":"view"},{"type":"function","name":"setPrice","inputs":[{"name":"_token","type":"address","internalType":"address"},{"name":"_price","type":"int256","internalType":"int256"}],"outputs":[],"stateMutability":"nonpayable"},{"type":"function","name":"setPriceFeed","inputs":[{"name":"_token","type":"address","internalType":"address"},{"name":"_priceId","type":"bytes32","internalType":"bytes32"}],"outputs":[],"stateMutability":"nonpayable"},{"type":"function","name":"test_MockPriceFeed","inputs":[],"outputs":[],"stateMutability":"pure"}],"bytecode":{"object":"0x608060405234801561001057600080fd5b5061032c806100206000396000f3fe60806040526004361061004a5760003560e01c8063034dd29b1461004f57806313f839b914610088578063adcb085a146100c4578063cfed246b146100e3578063f1c9051914610110575b600080fd5b34801561005b57600080fd5b5061008661006a366004610138565b6001600160a01b03909116600090815260208190526040902055565b005b6100b26100963660046101a9565b506001600160a01b031660009081526020819052604090205490565b60405190815260200160405180910390f35b3480156100d057600080fd5b506100866100df366004610138565b5050565b3480156100ef57600080fd5b506100b26100fe3660046102d4565b60006020819052908152604090205481565b34801561008657600080fd5b80356001600160a01b038116811461013357600080fd5b919050565b6000806040838503121561014b57600080fd5b6101548361011c565b946020939093013593505050565b634e487b7160e01b600052604160045260246000fd5b604051601f8201601f1916810167ffffffffffffffff811182821017156101a1576101a1610162565b604052919050565b60008060408084860312156101bd57600080fd5b6101c68461011c565b925060208085013567ffffffffffffffff808211156101e457600080fd5b8187019150601f88818401126101f957600080fd5b82358281111561020b5761020b610162565b8060051b61021a868201610178565b918252848101860191868101908c84111561023457600080fd5b87870192505b838310156102c1578235868111156102525760008081fd5b8701603f81018e136102645760008081fd5b888101358781111561027857610278610162565b610289818801601f19168b01610178565b8181528f8c83850101111561029e5760008081fd5b818c84018c83013760009181018b0191909152835250918701919087019061023a565b8099505050505050505050509250929050565b6000602082840312156102e657600080fd5b6102ef8261011c565b939250505056fea26469706673582212209fa6dc6235351def0cf881cd93f3601637fcf499f151ec715c0e656eca50f02164736f6c63430008140033","linkReferences":{}},"methodIdentifiers":{"getPrice(address,bytes[])":"13f839b9","prices(address)":"cfed246b","setPrice(address,int256)":"034dd29b","setPriceFeed(address,bytes32)":"adcb085a","test_MockPriceFeed()":"f1c90519"},"id":66}