{
  "abi": [
    {
      "inputs": [
        {
          "internalType": "contract IController",
          "name": "_controller",
          "type": "address"
        },
        {
          "internalType": "contract IERC20",
          "name": "_collateralToken",
          "type": "address"
        },
        {
          "internalType": "contract IPriceFeed",
          "name": "_priceFeed",
          "type": "address"
        },
        {
          "internalType": "contract ILiquidityPool",
          "name": "_liquidityPool",
          "type": "address"
        },
        {
          "internalType": "uint8",
          "name": "_assetDecimals",
          "type": "uint8"
        }
      ],
      "stateMutability": "nonpayable",
      "type": "constructor"
    },
    {
      "anonymous": false,
      "inputs": [
        {
          "indexed": false,
          "internalType": "uint256",
          "name": "amount",
          "type": "uint256"
        }
      ],
      "name": "CloseFeePaid",
      "type": "event"
    },
    {
      "anonymous": false,
      "inputs": [
        {
          "indexed": false,
          "internalType": "int256",
          "name": "closeFee",
          "type": "int256"
        }
      ],
      "name": "CloseFeeSet",
      "type": "event"
    },
    {
      "anonymous": false,
      "inputs": [
        {
          "indexed": false,
          "internalType": "int256",
          "name": "maxFundingRate",
          "type": "int256"
        }
      ],
      "name": "MaxFundingRateSet",
      "type": "event"
    },
    {
      "anonymous": false,
      "inputs": [
        {
          "indexed": false,
          "internalType": "int256",
          "name": "maxSkew",
          "type": "int256"
        }
      ],
      "name": "MaxSkewSet",
      "type": "event"
    },
    {
      "anonymous": false,
      "inputs": [
        {
          "indexed": false,
          "internalType": "int256",
          "name": "openFee",
          "type": "int256"
        }
      ],
      "name": "OpenFeeSet",
      "type": "event"
    },
    {
      "anonymous": false,
      "inputs": [
        {
          "indexed": true,
          "internalType": "address",
          "name": "owner",
          "type": "address"
        },
        {
          "indexed": false,
          "internalType": "uint256",
          "name": "id",
          "type": "uint256"
        },
        {
          "indexed": false,
          "internalType": "uint256",
          "name": "value",
          "type": "uint256"
        }
      ],
      "name": "PositionClosed",
      "type": "event"
    },
    {
      "anonymous": false,
      "inputs": [
        {
          "indexed": true,
          "internalType": "address",
          "name": "owner",
          "type": "address"
        },
        {
          "indexed": false,
          "internalType": "uint256",
          "name": "id",
          "type": "uint256"
        }
      ],
      "name": "PositionLiquidated",
      "type": "event"
    },
    {
      "anonymous": false,
      "inputs": [
        {
          "indexed": true,
          "internalType": "address",
          "name": "owner",
          "type": "address"
        },
        {
          "indexed": false,
          "internalType": "uint256",
          "name": "id",
          "type": "uint256"
        },
        {
          "indexed": false,
          "internalType": "int256",
          "name": "entryPrice",
          "type": "int256"
        },
        {
          "indexed": false,
          "internalType": "uint256",
          "name": "collateral",
          "type": "uint256"
        },
        {
          "indexed": false,
          "internalType": "uint256",
          "name": "leverage",
          "type": "uint256"
        },
        {
          "indexed": false,
          "internalType": "int8",
          "name": "direction",
          "type": "int8"
        }
      ],
      "name": "PositionOpened",
      "type": "event"
    },
    {
      "inputs": [],
      "name": "borrowFeeIntegral",
      "outputs": [
        {
          "internalType": "int256",
          "name": "",
          "type": "int256"
        }
      ],
      "stateMutability": "view",
      "type": "function"
    },
    {
      "inputs": [],
      "name": "closeFee",
      "outputs": [
        {
          "internalType": "int256",
          "name": "",
          "type": "int256"
        }
      ],
      "stateMutability": "view",
      "type": "function"
    },
    {
      "inputs": [
        {
          "internalType": "uint256",
          "name": "id",
          "type": "uint256"
        },
        {
          "internalType": "bytes[]",
          "name": "priceUpdateData_",
          "type": "bytes[]"
        }
      ],
      "name": "closePosition",
      "outputs": [],
      "stateMutability": "payable",
      "type": "function"
    },
    {
      "inputs": [],
      "name": "collateralToken",
      "outputs": [
        {
          "internalType": "contract IERC20",
          "name": "",
          "type": "address"
        }
      ],
      "stateMutability": "view",
      "type": "function"
    },
    {
      "inputs": [],
      "name": "controller",
      "outputs": [
        {
          "internalType": "contract IController",
          "name": "",
          "type": "address"
        }
      ],
      "stateMutability": "view",
      "type": "function"
    },
    {
      "inputs": [],
      "name": "excessOpenInterest",
      "outputs": [
        {
          "internalType": "int256",
          "name": "",
          "type": "int256"
        }
      ],
      "stateMutability": "view",
      "type": "function"
    },
    {
      "inputs": [],
      "name": "fundingFeeIntegral",
      "outputs": [
        {
          "internalType": "int256",
          "name": "",
          "type": "int256"
        }
      ],
      "stateMutability": "view",
      "type": "function"
    },
    {
      "inputs": [],
      "name": "getBorrowRate",
      "outputs": [
        {
          "internalType": "int256",
          "name": "",
          "type": "int256"
        }
      ],
      "stateMutability": "view",
      "type": "function"
    },
    {
      "inputs": [],
      "name": "getFundingRate",
      "outputs": [
        {
          "internalType": "int256",
          "name": "",
          "type": "int256"
        }
      ],
      "stateMutability": "view",
      "type": "function"
    },
    {
      "inputs": [
        {
          "internalType": "uint256",
          "name": "id",
          "type": "uint256"
        },
        {
          "internalType": "int256",
          "name": "price",
          "type": "int256"
        }
      ],
      "name": "getPositionDetails",
      "outputs": [
        {
          "components": [
            {
              "internalType": "uint256",
              "name": "id",
              "type": "uint256"
            },
            {
              "internalType": "uint256",
              "name": "collateral",
              "type": "uint256"
            },
            {
              "internalType": "int256",
              "name": "entryVolume",
              "type": "int256"
            },
            {
              "internalType": "int256",
              "name": "assets",
              "type": "int256"
            },
            {
              "internalType": "uint256",
              "name": "entryTimestamp",
              "type": "uint256"
            },
            {
              "internalType": "int256",
              "name": "borrowFeeAmount",
              "type": "int256"
            },
            {
              "internalType": "int256",
              "name": "fundingFeeAmount",
              "type": "int256"
            },
            {
              "internalType": "address",
              "name": "owner",
              "type": "address"
            },
            {
              "internalType": "int8",
              "name": "direction",
              "type": "int8"
            },
            {
              "internalType": "uint256",
              "name": "value",
              "type": "uint256"
            }
          ],
          "internalType": "struct ITradePair.PositionDetails",
          "name": "",
          "type": "tuple"
        }
      ],
      "stateMutability": "view",
      "type": "function"
    },
    {
      "inputs": [],
      "name": "lastUpdateTimestamp",
      "outputs": [
        {
          "internalType": "uint256",
          "name": "",
          "type": "uint256"
        }
      ],
      "stateMutability": "view",
      "type": "function"
    },
    {
      "inputs": [
        {
          "internalType": "uint256",
          "name": "id",
          "type": "uint256"
        },
        {
          "internalType": "bytes[]",
          "name": "priceUpdateData_",
          "type": "bytes[]"
        }
      ],
      "name": "liquidatePosition",
      "outputs": [],
      "stateMutability": "payable",
      "type": "function"
    },
    {
      "inputs": [],
      "name": "liquidatorReward",
      "outputs": [
        {
          "internalType": "uint256",
          "name": "",
          "type": "uint256"
        }
      ],
      "stateMutability": "view",
      "type": "function"
    },
    {
      "inputs": [],
      "name": "liquidityPool",
      "outputs": [
        {
          "internalType": "contract ILiquidityPool",
          "name": "",
          "type": "address"
        }
      ],
      "stateMutability": "view",
      "type": "function"
    },
    {
      "inputs": [],
      "name": "longCollateral",
      "outputs": [
        {
          "internalType": "int256",
          "name": "",
          "type": "int256"
        }
      ],
      "stateMutability": "view",
      "type": "function"
    },
    {
      "inputs": [],
      "name": "longOpenInterest",
      "outputs": [
        {
          "internalType": "int256",
          "name": "",
          "type": "int256"
        }
      ],
      "stateMutability": "view",
      "type": "function"
    },
    {
      "inputs": [],
      "name": "longTotalAssets",
      "outputs": [
        {
          "internalType": "int256",
          "name": "",
          "type": "int256"
        }
      ],
      "stateMutability": "view",
      "type": "function"
    },
    {
      "inputs": [],
      "name": "maxFundingRate",
      "outputs": [
        {
          "internalType": "int256",
          "name": "",
          "type": "int256"
        }
      ],
      "stateMutability": "view",
      "type": "function"
    },
    {
      "inputs": [],
      "name": "maxSkew",
      "outputs": [
        {
          "internalType": "int256",
          "name": "",
          "type": "int256"
        }
      ],
      "stateMutability": "view",
      "type": "function"
    },
    {
      "inputs": [],
      "name": "openFee",
      "outputs": [
        {
          "internalType": "int256",
          "name": "",
          "type": "int256"
        }
      ],
      "stateMutability": "view",
      "type": "function"
    },
    {
      "inputs": [
        {
          "internalType": "uint256",
          "name": "collateral",
          "type": "uint256"
        },
        {
          "internalType": "uint256",
          "name": "leverage",
          "type": "uint256"
        },
        {
          "internalType": "int8",
          "name": "direction",
          "type": "int8"
        },
        {
          "internalType": "bytes[]",
          "name": "priceUpdateData_",
          "type": "bytes[]"
        }
      ],
      "name": "openPosition",
      "outputs": [],
      "stateMutability": "payable",
      "type": "function"
    },
    {
      "inputs": [
        {
          "internalType": "uint256",
          "name": "",
          "type": "uint256"
        }
      ],
      "name": "positions",
      "outputs": [
        {
          "internalType": "uint256",
          "name": "collateral",
          "type": "uint256"
        },
        {
          "internalType": "int256",
          "name": "entryVolume",
          "type": "int256"
        },
        {
          "internalType": "int256",
          "name": "assets",
          "type": "int256"
        },
        {
          "internalType": "uint256",
          "name": "entryTimestamp",
          "type": "uint256"
        },
        {
          "internalType": "int256",
          "name": "borrowFeeIntegral",
          "type": "int256"
        },
        {
          "internalType": "int256",
          "name": "fundingFeeIntegral",
          "type": "int256"
        },
        {
          "internalType": "address",
          "name": "owner",
          "type": "address"
        },
        {
          "internalType": "int8",
          "name": "direction",
          "type": "int8"
        }
      ],
      "stateMutability": "view",
      "type": "function"
    },
    {
      "inputs": [],
      "name": "priceFeed",
      "outputs": [
        {
          "internalType": "contract IPriceFeed",
          "name": "",
          "type": "address"
        }
      ],
      "stateMutability": "view",
      "type": "function"
    },
    {
      "inputs": [
        {
          "internalType": "int256",
          "name": "closeFee_",
          "type": "int256"
        }
      ],
      "name": "setCloseFee",
      "outputs": [],
      "stateMutability": "nonpayable",
      "type": "function"
    },
    {
      "inputs": [
        {
          "internalType": "int256",
          "name": "maxFundingRate_",
          "type": "int256"
        }
      ],
      "name": "setMaxFundingRate",
      "outputs": [],
      "stateMutability": "nonpayable",
      "type": "function"
    },
    {
      "inputs": [
        {
          "internalType": "int256",
          "name": "maxSkew_",
          "type": "int256"
        }
      ],
      "name": "setMaxSkew",
      "outputs": [],
      "stateMutability": "nonpayable",
      "type": "function"
    },
    {
      "inputs": [
        {
          "internalType": "int256",
          "name": "openFee_",
          "type": "int256"
        }
      ],
      "name": "setOpenFee",
      "outputs": [],
      "stateMutability": "nonpayable",
      "type": "function"
    },
    {
      "inputs": [],
      "name": "shortCollateral",
      "outputs": [
        {
          "internalType": "int256",
          "name": "",
          "type": "int256"
        }
      ],
      "stateMutability": "view",
      "type": "function"
    },
    {
      "inputs": [],
      "name": "shortOpenInterest",
      "outputs": [
        {
          "internalType": "int256",
          "name": "",
          "type": "int256"
        }
      ],
      "stateMutability": "view",
      "type": "function"
    },
    {
      "inputs": [],
      "name": "shortTotalAssets",
      "outputs": [
        {
          "internalType": "int256",
          "name": "",
          "type": "int256"
        }
      ],
      "stateMutability": "view",
      "type": "function"
    },
    {
      "inputs": [
        {
          "internalType": "bytes[]",
          "name": "priceUpdateData_",
          "type": "bytes[]"
        }
      ],
      "name": "syncUnrealizedPnL",
      "outputs": [],
      "stateMutability": "nonpayable",
      "type": "function"
    },
    {
      "inputs": [],
      "name": "totalBorrowFeeIntegral",
      "outputs": [
        {
          "internalType": "int256",
          "name": "",
          "type": "int256"
        }
      ],
      "stateMutability": "view",
      "type": "function"
    },
    {
      "inputs": [],
      "name": "totalCollateral",
      "outputs": [
        {
          "internalType": "int256",
          "name": "",
          "type": "int256"
        }
      ],
      "stateMutability": "view",
      "type": "function"
    },
    {
      "inputs": [],
      "name": "totalFundingFeeIntegral",
      "outputs": [
        {
          "internalType": "int256",
          "name": "",
          "type": "int256"
        }
      ],
      "stateMutability": "view",
      "type": "function"
    },
    {
      "inputs": [],
      "name": "totalOpenInterest",
      "outputs": [
        {
          "internalType": "int256",
          "name": "",
          "type": "int256"
        }
      ],
      "stateMutability": "view",
      "type": "function"
    },
    {
      "inputs": [],
      "name": "unrealizedBorrowFeeIntegral",
      "outputs": [
        {
          "internalType": "int256",
          "name": "",
          "type": "int256"
        }
      ],
      "stateMutability": "view",
      "type": "function"
    },
    {
      "inputs": [],
      "name": "unrealizedFundingFeeIntegral",
      "outputs": [
        {
          "internalType": "int256",
          "name": "",
          "type": "int256"
        }
      ],
      "stateMutability": "view",
      "type": "function"
    },
    {
      "inputs": [
        {
          "internalType": "bytes[]",
          "name": "priceUpdateData_",
          "type": "bytes[]"
        }
      ],
      "name": "unrealizedPnL",
      "outputs": [
        {
          "internalType": "int256",
          "name": "",
          "type": "int256"
        }
      ],
      "stateMutability": "nonpayable",
      "type": "function"
    },
    {
      "inputs": [],
      "name": "updateFeeIntegrals",
      "outputs": [],
      "stateMutability": "nonpayable",
      "type": "function"
    }
  ],
  "bytecode": {
    "object": "0x60a0604052670de0b6b3a7640000600255620f42406014556305f5e1006015553480156200002c57600080fd5b5060405162002718380380620027188339810160408190526200004f91620000e5565b600380546001600160a01b038088166001600160a01b03199283161790925560068054878416908316179055600480548684169083161790556005805492851692909116919091179055620000a681600a6200027f565b60805242600f55620000bd620f4240600562000297565b60115550620002cd9350505050565b6001600160a01b0381168114620000e257600080fd5b50565b600080600080600060a08688031215620000fe57600080fd5b85516200010b81620000cc565b60208701519095506200011e81620000cc565b60408701519094506200013181620000cc565b60608701519093506200014481620000cc565b608087015190925060ff811681146200015c57600080fd5b809150509295509295909350565b634e487b7160e01b600052601160045260246000fd5b600181815b80851115620001c1578160001904821115620001a557620001a56200016a565b80851615620001b357918102915b93841c939080029062000185565b509250929050565b600082620001da5750600162000279565b81620001e95750600062000279565b81600181146200020257600281146200020d576200022d565b600191505062000279565b60ff8411156200022157620002216200016a565b50506001821b62000279565b5060208310610133831016604e8410600b841016171562000252575081810a62000279565b6200025e838362000180565b80600019048211156200027557620002756200016a565b0290505b92915050565b60006200029060ff841683620001c9565b9392505050565b80820260008212600160ff1b84141615620002b657620002b66200016a565b81810583148215176200027957620002796200016a565b60805161241a620002fe60003960008181611099015281816116ba015281816116f701526118cc015261241a6000f3fe6080604052600436106102305760003560e01c806397fb72891161012e578063ccf98c07116100ab578063f67908b51161006f578063f67908b514610629578063f6f52ecd1461063f578063f77c47911461066c578063f8cd29b81461068c578063fecd5d19146106a257600080fd5b8063ccf98c07146105b4578063d468e2a9146105d4578063d89fd4fd146105e9578063db16e989146105fe578063ebeb55ac1461061457600080fd5b8063b20b5f82116100f2578063b20b5f8214610549578063b46004a91461055e578063b784507314610573578063ba1c5e8014610589578063cb29bb9a1461059e57600080fd5b806397fb72891461043357806399fbab8814610449578063a3e22f10146104fd578063b10a821e14610513578063b2016bd41461052957600080fd5b806350ec40e0116101bc578063741bef1a11610180578063741bef1a146103bf578063845f6b03146103df578063870dcaeb146103f5578063936ea10d1461040b57806395196f7e1461041e57600080fd5b806350ec40e014610326578063665a11ca1461033c578063666ce4eb1461037457806370492cbf14610394578063714aee7a146103aa57600080fd5b8063247d7b6511610203578063247d7b65146102a957806345fa520d146102bc57806349c3d2d3146102dc5780634a654fa5146102fc5780634ac8eb5f1461031157600080fd5b8063030e0bb71461023557806310b9e6281461025757806314bcec9f1461026a5780631d3dc78a14610293575b600080fd5b34801561024157600080fd5b50610255610250366004611e43565b6106c2565b005b610255610265366004611f98565b6106fe565b34801561027657600080fd5b50610280600f5481565b6040519081526020015b60405180910390f35b34801561029f57600080fd5b50610280600e5481565b6102556102b7366004611f98565b610941565b3480156102c857600080fd5b506102556102d7366004611e43565b610ced565b3480156102e857600080fd5b506102556102f7366004611fdf565b610d22565b34801561030857600080fd5b50610280610e60565b34801561031d57600080fd5b50610280610e94565b34801561033257600080fd5b5061028060115481565b34801561034857600080fd5b5060055461035c906001600160a01b031681565b6040516001600160a01b03909116815260200161028a565b34801561038057600080fd5b5061025561038f366004611e43565b610ea6565b3480156103a057600080fd5b5061028060135481565b3480156103b657600080fd5b50610280610edb565b3480156103cb57600080fd5b5060045461035c906001600160a01b031681565b3480156103eb57600080fd5b50610280600a5481565b34801561040157600080fd5b50610280600c5481565b610255610419366004612014565b610f09565b34801561042a57600080fd5b506102806112aa565b34801561043f57600080fd5b5061028060075481565b34801561045557600080fd5b506104b6610464366004611e43565b600160208190526000918252604082208054918101546002820154600383015460048401546005850154600690950154959693959294919390926001600160a01b03811691600160a01b909104900b88565b604080519889526020890197909752958701949094526060860192909252608085015260a08401526001600160a01b031660c083015260000b60e08201526101000161028a565b34801561050957600080fd5b50610280600d5481565b34801561051f57600080fd5b5061028060025481565b34801561053557600080fd5b5060065461035c906001600160a01b031681565b34801561055557600080fd5b50610280611373565b34801561056a57600080fd5b5061025561138e565b34801561057f57600080fd5b5061028060125481565b34801561059557600080fd5b506102806113d1565b3480156105aa57600080fd5b50610280600b5481565b3480156105c057600080fd5b506102556105cf366004611e43565b61144c565b3480156105e057600080fd5b50610280611481565b3480156105f557600080fd5b50610280611493565b34801561060a57600080fd5b5061028060105481565b34801561062057600080fd5b506102806114aa565b34801561063557600080fd5b5061028060085481565b34801561064b57600080fd5b5061065f61065a36600461207d565b6114c1565b60405161028a919061209f565b34801561067857600080fd5b5060035461035c906001600160a01b031681565b34801561069857600080fd5b5061028060095481565b3480156106ae57600080fd5b506102806106bd366004611fdf565b6116a8565b60138190556040518181527fbde4445e1c143dd4e8021c9af2e6465d8e4af9b38c02bca0bc2711b90987bbc4906020015b60405180910390a150565b61070661138e565b600082815260016020526040902060068101546001600160a01b03166107915760405162461bcd60e51b815260206004820152603560248201527f5472616465506169723a3a6c6971756964617465506f736974696f6e3a20506f6044820152741cda5d1a5bdb88191bd95cc81b9bdd08195e1a5cdd605a1b60648201526084015b60405180910390fd5b600061079c8361175f565b905060006107aa85836118b5565b111561081e5760405162461bcd60e51b815260206004820152603a60248201527f5472616465506169723a3a6c6971756964617465506f736974696f6e3a20506f60448201527f736974696f6e206973206e6f74206c6971756964617461626c650000000000006064820152608401610788565b6108478260010154600019610833919061213f565b6006840154600160a01b900460000b611a23565b610870826002015460001961085c919061213f565b6006840154600160a01b900460000b611a75565b8154610896906108829060001961213f565b6006840154600160a01b900460000b611ab2565b6002546006546108b3916001600160a01b03909116903390611aef565b60055460025483546108e5926001600160a01b0316916108d29161216f565b6006546001600160a01b03169190611aef565b6108ee84611b57565b6108f783610d22565b60068201546040518581526001600160a01b03909116907f873acc32d6ec99918bc54244c0bfc0b91d519820afc1929a61c9f81c9ed468bc9060200160405180910390a250505050565b61094961138e565b600082815260016020526040902060068101546001600160a01b031633146109d95760405162461bcd60e51b815260206004820152603f60248201527f5472616465506169723a3a636c6f7365506f736974696f6e3a204f6e6c79207460448201527f6865206f776e65722063616e20636c6f73652074686520706f736974696f6e006064820152608401610788565b60006109e48361175f565b905060006109f285836118b5565b905060008111610a7b5760405162461bcd60e51b815260206004820152604860248201527f5472616465506169723a3a636c6f7365506f736974696f6e3a20506f7369746960448201527f6f6e206973206c6971756964617461626c6520616e642063616e206e6f742062606482015267194818db1bdcd95960c21b608482015260a401610788565b6000620f424061271083601354610a929190612182565b610a9c91906121af565b610aa691906121af565b90506000610ab4828461216f565b9050610adf8560010154600019610acb919061213f565b6006870154600160a01b900460000b611a23565b610b088560020154600019610af4919061213f565b6006870154600160a01b900460000b611a75565b8454610b2e90610b1a9060001961213f565b6006870154600160a01b900460000b611ab2565b8454811115610c20576006546040516370a0823160e01b81523060048201526000916001600160a01b0316906370a0823190602401602060405180830381865afa158015610b80573d6000803e3d6000fd5b505050506040513d601f19601f82011682018060405250810190610ba491906121c3565b905081811015610c1a576005546001600160a01b0316638f97e3a0610bc9838561216f565b6040518263ffffffff1660e01b8152600401610be791815260200190565b600060405180830381600087803b158015610c0157600080fd5b505af1158015610c15573d6000803e3d6000fd5b505050505b50610c3e565b6005548554610c3e916001600160a01b0316906108d290849061216f565b600654610c55906001600160a01b03163383611aef565b610c5e87611b57565b610c6786610d22565b600685015460408051898152602081018690526001600160a01b03909216917fc8469f8998427d0814b7efed804617bd8c43dfdfb3c6780d28a03ecf361fb698910160405180910390a26040518281527f3494c14b2dfc30e967d978e42a6ccc830c22f7403b42bba231439cfbc85cb3c89060200160405180910390a150505050505050565b60118190556040518181527f2c6ce9fc3256ccdbde9f8ed94f3566cb410c4d1d54dc4900c32c77e0a7d4b1f1906020016106f3565b6000610d2d826116a8565b6006546040516370a0823160e01b81523060048201529192506000916001600160a01b03909116906370a0823190602401602060405180830381865afa158015610d7b573d6000803e3d6000fd5b505050506040513d601f19601f82011682018060405250810190610d9f91906121c3565b90506000610dab610e94565b90506000831315610dc357610dc083826121dc565b90505b6000610dcf8383612204565b90506000811315610e3d5760055460405163047cbf1d60e51b8152600481018390526001600160a01b0390911690638f97e3a090602401600060405180830381600087803b158015610e2057600080fd5b505af1158015610e34573d6000803e3d6000fd5b50505050610e59565b600554610e59906001600160a01b03166108d28360001961213f565b5050505050565b6000610e10600f5442610e73919061216f565b610e7b6112aa565b610e85919061213f565b610e8f919061222b565b905090565b6000600c54600b54610e8f91906121dc565b60108190556040518181527f5b3daa80a366c6514bf838ea0c27fa0a924995f364d1987688f37de458ecdc17906020016106f3565b60006008546007541315610ef957600854600754610e8f9190612204565b600754600854610e8f9190612204565b601454831015610f6d5760405162461bcd60e51b815260206004820152602960248201527f5472616465506169723a3a6f70656e506f736974696f6e3a204c6576657261676044820152686520746f6f206c6f7760b81b6064820152608401610788565b601554831115610fd25760405162461bcd60e51b815260206004820152602a60248201527f5472616465506169723a3a6f70656e506f736974696f6e3a204c6576657261676044820152690ca40e8dede40d0d2ced60b31b6064820152608401610788565b600082900b60011480610fea5750600082900b600019145b6110495760405162461bcd60e51b815260206004820152602a60248201527f5472616465506169723a3a6f70656e506f736974696f6e3a20496e76616c6964604482015269103234b932b1ba34b7b760b11b6064820152608401610788565b61105161138e565b600061105c8261175f565b90506000806000815461106e90612259565b918290555090506000620f42406110858789612182565b61108f91906121af565b90506000836110be7f00000000000000000000000000000000000000000000000000000000000000008461213f565b6110c8919061222b565b90506000620f4240612710846012546110e1919061213f565b6110eb919061222b565b6110f5919061222b565b90506040518061010001604052808a8152602001848152602001838152602001428152602001600d548152602001600e548152602001336001600160a01b031681526020018860000b81525060016000868152602001908152602001600020600082015181600001556020820151816001015560408201518160020155606082015181600301556080820151816004015560a0820151816005015560c08201518160060160006101000a8154816001600160a01b0302191690836001600160a01b0316021790555060e08201518160060160146101000a81548160ff021916908360000b60ff1602179055509050506111ee8388611a23565b6111f88288611a75565b6112028988611ab2565b6112253330611211848d612272565b6006546001600160a01b0316929190611ba0565b600554600654611242916001600160a01b03918216911683611aef565b61124b86610d22565b60408051858152602081018790529081018a905260608101899052600088900b608082015233907f057db899120b7e4ceca12b4b6f94b7975cca396ca408496b55f6d9227e371e7a9060a00160405180910390a2505050505050505050565b6000600854600754131561130c576008546000036112c9575060105490565b6000600854620f42406007546112df919061213f565b6112e9919061222b565b9050601154816010546112fc919061213f565b611306919061222b565b91505090565b600754600854131561136d5760075460000361133157601054610e8f9060001961213f565b6000600754620f4240600854611347919061213f565b611351919061222b565b90506011548160105461136390612285565b6112fc919061213f565b50600090565b6000610e10600f5442611386919061216f565b610e7b6113d1565b611396610e60565b600e60008282546113a791906121dc565b909155506113b59050611373565b600d60008282546113c691906121dc565b909155505042600f55565b6005546000906001600160a01b031663f4f5c6c46113ed610edb565b6040518263ffffffff1660e01b815260040161140b91815260200190565b602060405180830381865afa158015611428573d6000803e3d6000fd5b505050506040513d601f19601f82011682018060405250810190610e8f91906121c3565b60128190556040518181527fcc53858d603c20538711044b2559bcaf559f9b12d4867409270b106e91cf2160906020016106f3565b6000600854600754610e8f9190612204565b600061149d611373565b600d54610e8f91906121dc565b60006114b4610e60565b600e54610e8f91906121dc565b6115226040518061014001604052806000815260200160008152602001600081526020016000815260200160008152602001600081526020016000815260200160006001600160a01b031681526020016000800b8152602001600081525090565b600083815260016020526040902060068101546001600160a01b03166115a95760405162461bcd60e51b815260206004820152603660248201527f5472616465506169723a3a676574506f736974696f6e44657461696c733a20506044820152751bdcda5d1a5bdb88191bd95cc81b9bdd08195e1a5cdd60521b6064820152608401610788565b60405180610140016040528085815260200182600001548152602001826001015481526020018260020154815260200182600301548152602001620f4240612710846001015485600401546115fc611493565b6116069190612204565b611610919061213f565b61161a919061222b565b611624919061222b565b8152602001620f4240612710846001015485600501546116426114aa565b61164c9190612204565b611656919061213f565b611660919061222b565b61166a919061222b565b815260068301546001600160a01b0381166020830152600160a01b900460000b604082015260600161169c86866118b5565b90529150505b92915050565b6000806116b48361175f565b905060007f0000000000000000000000000000000000000000000000000000000000000000826009546116e7919061213f565b6116f1919061222b565b905060007f000000000000000000000000000000000000000000000000000000000000000083600a54611724919061213f565b61172e919061222b565b905080600854600754846117429190612204565b61174c91906121dc565b6117569190612204565b95945050505050565b60048054600554604080516338d52e0f60e01b8152905160009485946001600160a01b03908116946313f839b9949116926338d52e0f928281019260209291908290030181865afa1580156117b8573d6000803e3d6000fd5b505050506040513d601f19601f820116820180604052508101906117dc91906122a1565b856040518363ffffffff1660e01b81526004016117fa929190612321565b6020604051808303816000875af1158015611819573d6000803e3d6000fd5b505050506040513d601f19601f8201168201806040525081019061183d91906121c3565b9050600081136116a25760405162461bcd60e51b815260206004820152603860248201527f5472616465506169723a3a5f67657450726963653a204661696c656420746f2060448201527f6665746368207468652063757272656e742070726963652e00000000000000006064820152608401610788565b6000828152600160205260408120600281015482907f0000000000000000000000000000000000000000000000000000000000000000906118f790869061213f565b611901919061222b565b60068301546001840154919250600091600160a01b909104820b906119269084612204565b611930919061213f565b90506000620f42406127108560010154866004015461194d611493565b6119579190612204565b611961919061213f565b61196b919061222b565b611975919061222b565b90506000620f4240612710866001015487600501546119926114aa565b61199c9190612204565b60068901546119b59190600160a01b900460000b61213f565b6119bf919061213f565b6119c9919061222b565b6119d3919061222b565b9050600081838588600001546119e991906121dc565b6119f39190612204565b6119fd9190612204565b90506000811215611a1757600096505050505050506116a2565b98975050505050505050565b600019600082900b01611a4d578160076000828254611a4291906121dc565b90915550611a719050565b6001600082900b01611a71578160086000828254611a6b91906121dc565b90915550505b5050565b600019600082900b01611a94578160096000828254611a4291906121dc565b6001600082900b01611a715781600a6000828254611a6b91906121dc565b600019600082900b01611ad15781600b6000828254611a4291906121dc565b6001600082900b01611a715781600c6000828254611a6b91906121dc565b6040516001600160a01b038316602482015260448101829052611b5290849063a9059cbb60e01b906064015b60408051601f198184030181529190526020810180516001600160e01b03166001600160e01b031990931692909217909152611bde565b505050565b60009081526001602081905260408220828155908101829055600281018290556003810182905560048101829055600581019190915560060180546001600160a81b0319169055565b6040516001600160a01b0380851660248301528316604482015260648101829052611bd89085906323b872dd60e01b90608401611b1b565b50505050565b6000611c33826040518060400160405280602081526020017f5361666545524332303a206c6f772d6c6576656c2063616c6c206661696c6564815250856001600160a01b0316611cb39092919063ffffffff16565b9050805160001480611c54575080806020019051810190611c549190612393565b611b525760405162461bcd60e51b815260206004820152602a60248201527f5361666545524332303a204552433230206f7065726174696f6e20646964206e6044820152691bdd081cdd58d8d9595960b21b6064820152608401610788565b6060611cc28484600085611cca565b949350505050565b606082471015611d2b5760405162461bcd60e51b815260206004820152602660248201527f416464726573733a20696e73756666696369656e742062616c616e636520666f6044820152651c8818d85b1b60d21b6064820152608401610788565b600080866001600160a01b03168587604051611d4791906123b5565b60006040518083038185875af1925050503d8060008114611d84576040519150601f19603f3d011682016040523d82523d6000602084013e611d89565b606091505b5091509150611d9a87838387611da5565b979650505050505050565b60608315611e14578251600003611e0d576001600160a01b0385163b611e0d5760405162461bcd60e51b815260206004820152601d60248201527f416464726573733a2063616c6c20746f206e6f6e2d636f6e74726163740000006044820152606401610788565b5081611cc2565b611cc28383815115611e295781518083602001fd5b8060405162461bcd60e51b815260040161078891906123d1565b600060208284031215611e5557600080fd5b5035919050565b634e487b7160e01b600052604160045260246000fd5b604051601f8201601f1916810167ffffffffffffffff81118282101715611e9b57611e9b611e5c565b604052919050565b6000601f8381840112611eb557600080fd5b8235602067ffffffffffffffff80831115611ed257611ed2611e5c565b8260051b611ee1838201611e72565b9384528681018301938381019089861115611efb57600080fd5b84890192505b85831015611f8b57823584811115611f195760008081fd5b8901603f81018b13611f2b5760008081fd5b85810135604086821115611f4157611f41611e5c565b611f52828b01601f19168901611e72565b8281528d82848601011115611f675760008081fd5b828285018a8301376000928101890192909252508352509184019190840190611f01565b9998505050505050505050565b60008060408385031215611fab57600080fd5b82359150602083013567ffffffffffffffff811115611fc957600080fd5b611fd585828601611ea3565b9150509250929050565b600060208284031215611ff157600080fd5b813567ffffffffffffffff81111561200857600080fd5b611cc284828501611ea3565b6000806000806080858703121561202a57600080fd5b843593506020850135925060408501358060000b811461204957600080fd5b9150606085013567ffffffffffffffff81111561206557600080fd5b61207187828801611ea3565b91505092959194509250565b6000806040838503121561209057600080fd5b50508035926020909101359150565b600061014082019050825182526020830151602083015260408301516040830152606083015160608301526080830151608083015260a083015160a083015260c083015160c083015260e083015161210260e08401826001600160a01b03169052565b50610100808401516121188285018260000b9052565b505061012092830151919092015290565b634e487b7160e01b600052601160045260246000fd5b80820260008212600160ff1b8414161561215b5761215b612129565b81810583148215176116a2576116a2612129565b818103818111156116a2576116a2612129565b80820281158282048414176116a2576116a2612129565b634e487b7160e01b600052601260045260246000fd5b6000826121be576121be612199565b500490565b6000602082840312156121d557600080fd5b5051919050565b80820182811260008312801582168215821617156121fc576121fc612129565b505092915050565b818103600083128015838313168383128216171561222457612224612129565b5092915050565b60008261223a5761223a612199565b600160ff1b82146000198414161561225457612254612129565b500590565b60006001820161226b5761226b612129565b5060010190565b808201808211156116a2576116a2612129565b6000600160ff1b820161229a5761229a612129565b5060000390565b6000602082840312156122b357600080fd5b81516001600160a01b03811681146122ca57600080fd5b9392505050565b60005b838110156122ec5781810151838201526020016122d4565b50506000910152565b6000815180845261230d8160208601602086016122d1565b601f01601f19169290920160200192915050565b60006040820160018060a01b0385168352602060408185015281855180845260608601915060608160051b870101935082870160005b8281101561238557605f198887030184526123738683516122f5565b95509284019290840190600101612357565b509398975050505050505050565b6000602082840312156123a557600080fd5b815180151581146122ca57600080fd5b600082516123c78184602087016122d1565b9190910192915050565b6020815260006122ca60208301846122f556fea2646970667358221220904562466920a6416e5de505cfe2427d8f1126684d908662fe3304b2bbf290e364736f6c63430008140033",
    "linkReferences": {}
  },
  "methodIdentifiers": {
    "borrowFeeIntegral()": "a3e22f10",
    "closeFee()": "70492cbf",
    "closePosition(uint256,bytes[])": "247d7b65",
    "collateralToken()": "b2016bd4",
    "controller()": "f77c4791",
    "excessOpenInterest()": "714aee7a",
    "fundingFeeIntegral()": "1d3dc78a",
    "getBorrowRate()": "ba1c5e80",
    "getFundingRate()": "95196f7e",
    "getPositionDetails(uint256,int256)": "f6f52ecd",
    "lastUpdateTimestamp()": "14bcec9f",
    "liquidatePosition(uint256,bytes[])": "10b9e628",
    "liquidatorReward()": "b10a821e",
    "liquidityPool()": "665a11ca",
    "longCollateral()": "cb29bb9a",
    "longOpenInterest()": "97fb7289",
    "longTotalAssets()": "f8cd29b8",
    "maxFundingRate()": "db16e989",
    "maxSkew()": "50ec40e0",
    "openFee()": "b7845073",
    "openPosition(uint256,uint256,int8,bytes[])": "936ea10d",
    "positions(uint256)": "99fbab88",
    "priceFeed()": "741bef1a",
    "setCloseFee(int256)": "030e0bb7",
    "setMaxFundingRate(int256)": "666ce4eb",
    "setMaxSkew(int256)": "45fa520d",
    "setOpenFee(int256)": "ccf98c07",
    "shortCollateral()": "870dcaeb",
    "shortOpenInterest()": "f67908b5",
    "shortTotalAssets()": "845f6b03",
    "syncUnrealizedPnL(bytes[])": "49c3d2d3",
    "totalBorrowFeeIntegral()": "d89fd4fd",
    "totalCollateral()": "4ac8eb5f",
    "totalFundingFeeIntegral()": "ebeb55ac",
    "totalOpenInterest()": "d468e2a9",
    "unrealizedBorrowFeeIntegral()": "b20b5f82",
    "unrealizedFundingFeeIntegral()": "4a654fa5",
    "unrealizedPnL(bytes[])": "fecd5d19",
    "updateFeeIntegrals()": "b46004a9"
  },
  "id": 32
}