{"abi":[{"type":"constructor","inputs":[{"name":"controller_","type":"address","internalType":"contract IController"},{"name":"liquidityPool_","type":"address","internalType":"contract ILiquidityPool"},{"name":"assetDecimals_","type":"uint8","internalType":"uint8"},{"name":"collateralDecimals_","type":"uint8","internalType":"uint8"},{"name":"pyth_","type":"address","internalType":"address"},{"name":"pythId_","type":"bytes32","internalType":"bytes32"}],"stateMutability":"nonpayable"},{"type":"function","name":"borrowFeeIntegral","inputs":[],"outputs":[{"name":"","type":"int256","internalType":"int256"}],"stateMutability":"view"},{"type":"function","name":"closeFee","inputs":[],"outputs":[{"name":"","type":"int256","internalType":"int256"}],"stateMutability":"view"},{"type":"function","name":"closePosition","inputs":[{"name":"id","type":"uint256","internalType":"uint256"},{"name":"priceUpdateData_","type":"bytes[]","internalType":"bytes[]"}],"outputs":[],"stateMutability":"payable"},{"type":"function","name":"collateralToken","inputs":[],"outputs":[{"name":"","type":"address","internalType":"contract IERC20"}],"stateMutability":"view"},{"type":"function","name":"controller","inputs":[],"outputs":[{"name":"","type":"address","internalType":"contract IController"}],"stateMutability":"view"},{"type":"function","name":"excessOpenInterest","inputs":[],"outputs":[{"name":"","type":"int256","internalType":"int256"}],"stateMutability":"view"},{"type":"function","name":"fundingFeeIntegral","inputs":[],"outputs":[{"name":"","type":"int256","internalType":"int256"}],"stateMutability":"view"},{"type":"function","name":"getBorrowRate","inputs":[],"outputs":[{"name":"","type":"int256","internalType":"int256"}],"stateMutability":"view"},{"type":"function","name":"getFundingRate","inputs":[],"outputs":[{"name":"","type":"int256","internalType":"int256"}],"stateMutability":"view"},{"type":"function","name":"getPositionDetails","inputs":[{"name":"id","type":"uint256","internalType":"uint256"},{"name":"price","type":"int256","internalType":"int256"}],"outputs":[{"name":"","type":"tuple","internalType":"struct ITradePair.PositionDetails","components":[{"name":"id","type":"uint256","internalType":"uint256"},{"name":"collateral","type":"uint256","internalType":"uint256"},{"name":"entryVolume","type":"int256","internalType":"int256"},{"name":"assets","type":"int256","internalType":"int256"},{"name":"entryTimestamp","type":"uint256","internalType":"uint256"},{"name":"borrowFeeAmount","type":"int256","internalType":"int256"},{"name":"fundingFeeAmount","type":"int256","internalType":"int256"},{"name":"owner","type":"address","internalType":"address"},{"name":"direction","type":"int8","internalType":"int8"},{"name":"value","type":"uint256","internalType":"uint256"}]}],"stateMutability":"view"},{"type":"function","name":"getUnrealizedPnL","inputs":[{"name":"priceUpdateData_","type":"bytes[]","internalType":"bytes[]"}],"outputs":[{"name":"","type":"int256","internalType":"int256"}],"stateMutability":"payable"},{"type":"function","name":"lastUpdateTimestamp","inputs":[],"outputs":[{"name":"","type":"uint256","internalType":"uint256"}],"stateMutability":"view"},{"type":"function","name":"liquidatePosition","inputs":[{"name":"id","type":"uint256","internalType":"uint256"},{"name":"priceUpdateData_","type":"bytes[]","internalType":"bytes[]"}],"outputs":[],"stateMutability":"payable"},{"type":"function","name":"liquidatorReward","inputs":[],"outputs":[{"name":"","type":"uint256","internalType":"uint256"}],"stateMutability":"view"},{"type":"function","name":"liquidityPool","inputs":[],"outputs":[{"name":"","type":"address","internalType":"contract ILiquidityPool"}],"stateMutability":"view"},{"type":"function","name":"longCollateral","inputs":[],"outputs":[{"name":"","type":"int256","internalType":"int256"}],"stateMutability":"view"},{"type":"function","name":"longOpenInterest","inputs":[],"outputs":[{"name":"","type":"int256","internalType":"int256"}],"stateMutability":"view"},{"type":"function","name":"longTotalAssets","inputs":[],"outputs":[{"name":"","type":"int256","internalType":"int256"}],"stateMutability":"view"},{"type":"function","name":"maxFundingRate","inputs":[],"outputs":[{"name":"","type":"int256","internalType":"int256"}],"stateMutability":"view"},{"type":"function","name":"maxPriceAge","inputs":[],"outputs":[{"name":"","type":"uint256","internalType":"uint256"}],"stateMutability":"view"},{"type":"function","name":"maxSkew","inputs":[],"outputs":[{"name":"","type":"int256","internalType":"int256"}],"stateMutability":"view"},{"type":"function","name":"openFee","inputs":[],"outputs":[{"name":"","type":"int256","internalType":"int256"}],"stateMutability":"view"},{"type":"function","name":"openPosition","inputs":[{"name":"collateral","type":"uint256","internalType":"uint256"},{"name":"leverage","type":"uint256","internalType":"uint256"},{"name":"direction","type":"int8","internalType":"int8"},{"name":"priceUpdateData_","type":"bytes[]","internalType":"bytes[]"}],"outputs":[],"stateMutability":"payable"},{"type":"function","name":"positions","inputs":[{"name":"","type":"uint256","internalType":"uint256"}],"outputs":[{"name":"collateral","type":"uint256","internalType":"uint256"},{"name":"entryVolume","type":"int256","internalType":"int256"},{"name":"assets","type":"int256","internalType":"int256"},{"name":"entryTimestamp","type":"uint256","internalType":"uint256"},{"name":"borrowFeeIntegral","type":"int256","internalType":"int256"},{"name":"fundingFeeIntegral","type":"int256","internalType":"int256"},{"name":"owner","type":"address","internalType":"address"},{"name":"direction","type":"int8","internalType":"int8"}],"stateMutability":"view"},{"type":"function","name":"priceFeedUpdateFee","inputs":[],"outputs":[{"name":"","type":"uint256","internalType":"uint256"}],"stateMutability":"view"},{"type":"function","name":"pyth","inputs":[],"outputs":[{"name":"","type":"address","internalType":"contract IPyth"}],"stateMutability":"view"},{"type":"function","name":"pythId","inputs":[],"outputs":[{"name":"","type":"bytes32","internalType":"bytes32"}],"stateMutability":"view"},{"type":"function","name":"setCloseFee","inputs":[{"name":"closeFee_","type":"int256","internalType":"int256"}],"outputs":[],"stateMutability":"nonpayable"},{"type":"function","name":"setMaxFundingRate","inputs":[{"name":"maxFundingRate_","type":"int256","internalType":"int256"}],"outputs":[],"stateMutability":"nonpayable"},{"type":"function","name":"setMaxPriceAge","inputs":[{"name":"maxPriceAge_","type":"uint256","internalType":"uint256"}],"outputs":[],"stateMutability":"nonpayable"},{"type":"function","name":"setMaxSkew","inputs":[{"name":"maxSkew_","type":"int256","internalType":"int256"}],"outputs":[],"stateMutability":"nonpayable"},{"type":"function","name":"setOpenFee","inputs":[{"name":"openFee_","type":"int256","internalType":"int256"}],"outputs":[],"stateMutability":"nonpayable"},{"type":"function","name":"shortCollateral","inputs":[],"outputs":[{"name":"","type":"int256","internalType":"int256"}],"stateMutability":"view"},{"type":"function","name":"shortOpenInterest","inputs":[],"outputs":[{"name":"","type":"int256","internalType":"int256"}],"stateMutability":"view"},{"type":"function","name":"shortTotalAssets","inputs":[],"outputs":[{"name":"","type":"int256","internalType":"int256"}],"stateMutability":"view"},{"type":"function","name":"syncUnrealizedPnL","inputs":[{"name":"priceUpdateData_","type":"bytes[]","internalType":"bytes[]"}],"outputs":[],"stateMutability":"payable"},{"type":"function","name":"totalBorrowFeeIntegral","inputs":[],"outputs":[{"name":"","type":"int256","internalType":"int256"}],"stateMutability":"view"},{"type":"function","name":"totalCollateral","inputs":[],"outputs":[{"name":"","type":"int256","internalType":"int256"}],"stateMutability":"view"},{"type":"function","name":"totalFundingFeeIntegral","inputs":[],"outputs":[{"name":"","type":"int256","internalType":"int256"}],"stateMutability":"view"},{"type":"function","name":"totalOpenInterest","inputs":[],"outputs":[{"name":"","type":"int256","internalType":"int256"}],"stateMutability":"view"},{"type":"function","name":"unrealizedBorrowFeeIntegral","inputs":[],"outputs":[{"name":"","type":"int256","internalType":"int256"}],"stateMutability":"view"},{"type":"function","name":"unrealizedFundingFeeIntegral","inputs":[],"outputs":[{"name":"","type":"int256","internalType":"int256"}],"stateMutability":"view"},{"type":"function","name":"updateFeeIntegrals","inputs":[],"outputs":[],"stateMutability":"nonpayable"},{"type":"event","name":"CloseFeePaid","inputs":[{"name":"amount","type":"uint256","indexed":false,"internalType":"uint256"}],"anonymous":false},{"type":"event","name":"CloseFeeSet","inputs":[{"name":"closeFee","type":"int256","indexed":false,"internalType":"int256"}],"anonymous":false},{"type":"event","name":"MaxFundingRateSet","inputs":[{"name":"maxFundingRate","type":"int256","indexed":false,"internalType":"int256"}],"anonymous":false},{"type":"event","name":"MaxPriceAgeSet","inputs":[{"name":"maxPriceAge","type":"uint256","indexed":false,"internalType":"uint256"}],"anonymous":false},{"type":"event","name":"MaxSkewSet","inputs":[{"name":"maxSkew","type":"int256","indexed":false,"internalType":"int256"}],"anonymous":false},{"type":"event","name":"OpenFeeSet","inputs":[{"name":"openFee","type":"int256","indexed":false,"internalType":"int256"}],"anonymous":false},{"type":"event","name":"PositionClosed","inputs":[{"name":"owner","type":"address","indexed":true,"internalType":"address"},{"name":"id","type":"uint256","indexed":false,"internalType":"uint256"},{"name":"value","type":"uint256","indexed":false,"internalType":"uint256"},{"name":"closePrice","type":"int256","indexed":false,"internalType":"int256"},{"name":"borrowFeeAmount","type":"int256","indexed":false,"internalType":"int256"},{"name":"fundingFeeAmount","type":"int256","indexed":false,"internalType":"int256"}],"anonymous":false},{"type":"event","name":"PositionLiquidated","inputs":[{"name":"owner","type":"address","indexed":true,"internalType":"address"},{"name":"id","type":"uint256","indexed":false,"internalType":"uint256"},{"name":"borrowFeeAmount","type":"int256","indexed":false,"internalType":"int256"},{"name":"fundingFeeAmount","type":"int256","indexed":false,"internalType":"int256"}],"anonymous":false},{"type":"event","name":"PositionOpened","inputs":[{"name":"owner","type":"address","indexed":true,"internalType":"address"},{"name":"id","type":"uint256","indexed":false,"internalType":"uint256"},{"name":"entryPrice","type":"int256","indexed":false,"internalType":"int256"},{"name":"collateral","type":"uint256","indexed":false,"internalType":"uint256"},{"name":"volume","type":"int256","indexed":false,"internalType":"int256"},{"name":"assets","type":"int256","indexed":false,"internalType":"int256"},{"name":"direction","type":"int8","indexed":false,"internalType":"int8"},{"name":"borrowFeeIntegral","type":"int256","indexed":false,"internalType":"int256"},{"name":"fundingFeeIntegral","type":"int256","indexed":false,"internalType":"int256"}],"anonymous":false}],"bytecode":{"object":"0x60c0604052670de0b6b3a76400006002556001600855600a6009556c0c9f2c9cd04674edea40000000601755620f42406018556305f5e1006019553480156200004757600080fd5b5060405162002d7a38038062002d7a8339810160408190526200006a916200019d565b600380546001600160a01b038089166001600160a01b031992831617909255600680548584169083161790556007839055600480549288169290911682178155604080516338d52e0f60e01b815290516338d52e0f928281019260209291908290030181865afa158015620000e3573d6000803e3d6000fd5b505050506040513d601f19601f820116820180604052508101906200010991906200021e565b600580546001600160a01b0319166001600160a01b03929092169190911790556200013684600a6200035a565b6080526200014683600a6200035a565b60a052426012556200015d620f424060056200036b565b60145550620003a1945050505050565b6001600160a01b03811681146200018357600080fd5b50565b805160ff811681146200019857600080fd5b919050565b60008060008060008060c08789031215620001b757600080fd5b8651620001c4816200016d565b6020880151909650620001d7816200016d565b9450620001e76040880162000186565b9350620001f76060880162000186565b9250608087015162000209816200016d565b8092505060a087015190509295509295509295565b6000602082840312156200023157600080fd5b81516200023e816200016d565b9392505050565b634e487b7160e01b600052601160045260246000fd5b600181815b808511156200029c57816000190482111562000280576200028062000245565b808516156200028e57918102915b93841c939080029062000260565b509250929050565b600082620002b55750600162000354565b81620002c45750600062000354565b8160018114620002dd5760028114620002e85762000308565b600191505062000354565b60ff841115620002fc57620002fc62000245565b50506001821b62000354565b5060208310610133831016604e8410600b84101617156200032d575081810a62000354565b6200033983836200025b565b806000190482111562000350576200035062000245565b0290505b92915050565b60006200023e60ff841683620002a4565b80820260008212600160ff1b841416156200038a576200038a62000245565b818105831482151762000354576200035462000245565b60805160a051612989620003f16000396000818161125801528181611a7001528181611ebe0152611f3301526000818161127d01528181611a4e01528181611e9d0152611f1201526129896000f3fe60806040526004361061025c5760003560e01c806397fb728911610144578063cb29bb9a116100b6578063ebeb55ac1161007a578063ebeb55ac14610688578063f67908b51461069d578063f6f52ecd146106b3578063f77c4791146106e0578063f8cd29b814610700578063f98d06f01461071657600080fd5b8063cb29bb9a14610612578063ccf98c0714610628578063d468e2a914610648578063d89fd4fd1461065d578063db16e9891461067257600080fd5b8063b2016bd411610108578063b2016bd414610587578063b20b5f82146105a7578063b46004a9146105bc578063b7845073146105d1578063ba1c5e80146105e7578063c6db096b146105fc57600080fd5b806397fb72891461047b57806399fbab8814610491578063a3e22f1014610545578063ae60efb31461055b578063b10a821e1461057157600080fd5b80634ac8eb5f116101dd57806370492cbf116101a157806370492cbf146103fc578063714aee7a14610412578063845f6b0314610427578063870dcaeb1461043d578063936ea10d1461045357806395196f7e1461046657600080fd5b80634ac8eb5f1461035957806350ec40e01461036e57806356447ce814610384578063665a11ca146103a4578063666ce4eb146103dc57600080fd5b8063236b089f11610224578063236b089f146102eb578063247d7b65146102fe57806345fa520d1461031157806349c3d2d3146103315780634a654fa51461034457600080fd5b8063030e0bb71461026157806310b9e6281461028357806314bcec9f146102965780631584410a146102bf5780631d3dc78a146102d5575b600080fd5b34801561026d57600080fd5b5061028161027c36600461224b565b610736565b005b6102816102913660046123a0565b610772565b3480156102a257600080fd5b506102ac60125481565b6040519081526020015b60405180910390f35b3480156102cb57600080fd5b506102ac60095481565b3480156102e157600080fd5b506102ac60115481565b6102ac6102f93660046123e7565b610a35565b61028161030c3660046123a0565b610aaf565b34801561031d57600080fd5b5061028161032c36600461224b565b610ee4565b61028161033f3660046123e7565b610f19565b34801561035057600080fd5b506102ac610f8a565b34801561036557600080fd5b506102ac610fbe565b34801561037a57600080fd5b506102ac60145481565b34801561039057600080fd5b5061028161039f36600461224b565b610fd0565b3480156103b057600080fd5b506004546103c4906001600160a01b031681565b6040516001600160a01b0390911681526020016102b6565b3480156103e857600080fd5b506102816103f736600461224b565b611005565b34801561040857600080fd5b506102ac60165481565b34801561041e57600080fd5b506102ac61103a565b34801561043357600080fd5b506102ac600d5481565b34801561044957600080fd5b506102ac600f5481565b61028161046136600461241c565b611068565b34801561047257600080fd5b506102ac6114c2565b34801561048757600080fd5b506102ac600a5481565b34801561049d57600080fd5b506104fe6104ac36600461224b565b600160208190526000918252604082208054918101546002820154600383015460048401546005850154600690950154959693959294919390926001600160a01b03811691600160a01b909104900b88565b604080519889526020890197909752958701949094526060860192909252608085015260a08401526001600160a01b031660c083015260000b60e0820152610100016102b6565b34801561055157600080fd5b506102ac60105481565b34801561056757600080fd5b506102ac60085481565b34801561057d57600080fd5b506102ac60025481565b34801561059357600080fd5b506005546103c4906001600160a01b031681565b3480156105b357600080fd5b506102ac61158b565b3480156105c857600080fd5b506102816115a6565b3480156105dd57600080fd5b506102ac60155481565b3480156105f357600080fd5b506102ac6115e9565b34801561060857600080fd5b506102ac60075481565b34801561061e57600080fd5b506102ac600e5481565b34801561063457600080fd5b5061028161064336600461224b565b611664565b34801561065457600080fd5b506102ac611699565b34801561066957600080fd5b506102ac6116ab565b34801561067e57600080fd5b506102ac60135481565b34801561069457600080fd5b506102ac6116c2565b3480156106a957600080fd5b506102ac600b5481565b3480156106bf57600080fd5b506106d36106ce366004612485565b6116d9565b6040516102b691906124a7565b3480156106ec57600080fd5b506003546103c4906001600160a01b031681565b34801561070c57600080fd5b506102ac600c5481565b34801561072257600080fd5b506006546103c4906001600160a01b031681565b60168190556040518181527fbde4445e1c143dd4e8021c9af2e6465d8e4af9b38c02bca0bc2711b90987bbc4906020015b60405180910390a150565b600654600854604051631df3cbc560e31b815283926001600160a01b03169163ef9e5e28916107a5908590600401612581565b6000604051808303818588803b1580156107be57600080fd5b505af11580156107d2573d6000803e3d6000fd5b50505050506107df6115a6565b600083815260016020526040902060068101546001600160a01b031661086a5760405162461bcd60e51b815260206004820152603560248201527f5472616465506169723a3a6c6971756964617465506f736974696f6e3a20506f6044820152741cda5d1a5bdb88191bd95cc81b9bdd08195e1a5cdd605a1b60648201526084015b60405180910390fd5b60006108746118c0565b905060006108828683611a33565b11156108f65760405162461bcd60e51b815260206004820152603a60248201527f5472616465506169723a3a6c6971756964617465506f736974696f6e3a20506f60448201527f736974696f6e206973206e6f74206c6971756964617461626c650000000000006064820152608401610861565b61091f826001015460001961090b91906125f9565b6006840154600160a01b900460000b611b52565b610948826002015460001961093491906125f9565b6006840154600160a01b900460000b611ba3565b815461096e9061095a906000196125f9565b6006840154600160a01b900460000b611be0565b60025460055461098b916001600160a01b03909116903390611c1d565b60045460025483546109bd926001600160a01b0316916109aa91612629565b6005546001600160a01b03169190611c1d565b6109c5611c85565b60068201546001600160a01b03167f7ede5a62b652830796859965406eba1b6e9488d9e3b9cd49c30475bd1f49e67a866109fe85611dbf565b610a0786611e02565b6040805193845260208401929092529082015260600160405180910390a2610a2e85611e40565b5050505050565b600654600854604051631df3cbc560e31b815260009284926001600160a01b039091169163ef9e5e289190610a6e908590600401612581565b6000604051808303818588803b158015610a8757600080fd5b505af1158015610a9b573d6000803e3d6000fd5b5050505050610aa8611e89565b9392505050565b600654600854604051631df3cbc560e31b815283926001600160a01b03169163ef9e5e2891610ae2908590600401612581565b6000604051808303818588803b158015610afb57600080fd5b505af1158015610b0f573d6000803e3d6000fd5b5050505050610b1c6115a6565b600083815260016020526040902060068101546001600160a01b03163314610bac5760405162461bcd60e51b815260206004820152603f60248201527f5472616465506169723a3a636c6f7365506f736974696f6e3a204f6e6c79207460448201527f6865206f776e65722063616e20636c6f73652074686520706f736974696f6e006064820152608401610861565b6000610bb66118c0565b90506000610bc48683611a33565b905060008111610c4d5760405162461bcd60e51b815260206004820152604860248201527f5472616465506169723a3a636c6f7365506f736974696f6e3a20506f7369746960448201527f6f6e206973206c6971756964617461626c6520616e642063616e206e6f742062606482015267194818db1bdcd95960c21b608482015260a401610861565b6000620f424061271083601654610c64919061263c565b610c6e9190612669565b610c789190612669565b90506000610c868284612629565b9050610cb18560010154600019610c9d91906125f9565b6006870154600160a01b900460000b611b52565b610cda8560020154600019610cc691906125f9565b6006870154600160a01b900460000b611ba3565b8454610d0090610cec906000196125f9565b6006870154600160a01b900460000b611be0565b8454811115610df2576005546040516370a0823160e01b81523060048201526000916001600160a01b0316906370a0823190602401602060405180830381865afa158015610d52573d6000803e3d6000fd5b505050506040513d601f19601f82011682018060405250810190610d76919061267d565b905081811015610dec576004546001600160a01b0316638f97e3a0610d9b8385612629565b6040518263ffffffff1660e01b8152600401610db991815260200190565b600060405180830381600087803b158015610dd357600080fd5b505af1158015610de7573d6000803e3d6000fd5b505050505b50610e10565b6004548554610e10916001600160a01b0316906109aa908490612629565b600554610e27906001600160a01b03163383611c1d565b610e2f611c85565b60068501546001600160a01b03167f55ef1ef46d21dba5cc7f03de23b2eded94c30551ed3270f06a09f5b1e6db79dd898587610e6a8a611dbf565b610e738b611e02565b604080519586526020860194909452928401919091526060830152608082015260a00160405180910390a26040518281527f3494c14b2dfc30e967d978e42a6ccc830c22f7403b42bba231439cfbc85cb3c89060200160405180910390a1610eda88611e40565b5050505050505050565b60148190556040518181527f2c6ce9fc3256ccdbde9f8ed94f3566cb410c4d1d54dc4900c32c77e0a7d4b1f190602001610767565b600654600854604051631df3cbc560e31b815283926001600160a01b03169163ef9e5e2891610f4c908590600401612581565b6000604051808303818588803b158015610f6557600080fd5b505af1158015610f79573d6000803e3d6000fd5b5050505050610f86611c85565b5050565b6000610e1060125442610f9d9190612629565b610fa56114c2565b610faf91906125f9565b610fb99190612696565b905090565b6000600f54600e54610fb991906126c4565b60098190556040518181527f461309d8133f14d74856f2194a28d8637335793efa5804fe202b798919f71ff790602001610767565b60138190556040518181527f5b3daa80a366c6514bf838ea0c27fa0a924995f364d1987688f37de458ecdc1790602001610767565b6000600b54600a54131561105857600b54600a54610fb991906126ec565b600a54600b54610fb991906126ec565b600654600854604051631df3cbc560e31b815283926001600160a01b03169163ef9e5e289161109b908590600401612581565b6000604051808303818588803b1580156110b457600080fd5b505af11580156110c8573d6000803e3d6000fd5b50505050506018548410156111315760405162461bcd60e51b815260206004820152602960248201527f5472616465506169723a3a6f70656e506f736974696f6e3a204c6576657261676044820152686520746f6f206c6f7760b81b6064820152608401610861565b6019548411156111965760405162461bcd60e51b815260206004820152602a60248201527f5472616465506169723a3a6f70656e506f736974696f6e3a204c6576657261676044820152690ca40e8dede40d0d2ced60b31b6064820152608401610861565b600083900b600114806111ae5750600083900b600019145b61120d5760405162461bcd60e51b815260206004820152602a60248201527f5472616465506169723a3a6f70656e506f736974696f6e3a20496e76616c6964604482015269103234b932b1ba34b7b760b11b6064820152608401610861565b6112156115a6565b600061121f6118c0565b90506000806000815461123190612713565b918290555090506000620f4240611248888a61263c565b6112529190612669565b905060007f0000000000000000000000000000000000000000000000000000000000000000846017547f0000000000000000000000000000000000000000000000000000000000000000856112a791906125f9565b6112b191906125f9565b6112bb9190612696565b6112c59190612696565b90506000620f4240612710846015546112de91906125f9565b6112e89190612696565b6112f29190612696565b90506040518061010001604052808b815260200184815260200183815260200142815260200160105481526020016011548152602001336001600160a01b031681526020018960000b81525060016000868152602001908152602001600020600082015181600001556020820151816001015560408201518160020155606082015181600301556080820151816004015560a0820151816005015560c08201518160060160006101000a8154816001600160a01b0302191690836001600160a01b0316021790555060e08201518160060160146101000a81548160ff021916908360000b60ff1602179055509050506113eb8389611b52565b6113f58289611ba3565b6113ff8a89611be0565b611422333061140e848e61272c565b6005546001600160a01b0316929190611fae565b60045460055461143f916001600160a01b03918216911683611c1d565b611447611c85565b60105460115460408051878152602081018990529081018d9052606081018690526080810185905260008b900b60a082015260c081019290925260e082015233907fb45dd9ceca73c74aaacabc11e35e34dd250a45c6efc1d82748994ff42f9d07e5906101000160405180910390a250505050505050505050565b6000600b54600a54131561152457600b546000036114e1575060135490565b6000600b54620f4240600a546114f791906125f9565b6115019190612696565b90506014548160135461151491906125f9565b61151e9190612696565b91505090565b600a54600b54131561158557600a5460000361154957601354610fb9906000196125f9565b6000600a54620f4240600b5461155f91906125f9565b6115699190612696565b90506014548160135461157b9061273f565b61151491906125f9565b50600090565b6000610e106012544261159e9190612629565b610fa56115e9565b6115ae610f8a565b601160008282546115bf91906126c4565b909155506115cd905061158b565b601060008282546115de91906126c4565b909155505042601255565b6004546000906001600160a01b031663f4f5c6c461160561103a565b6040518263ffffffff1660e01b815260040161162391815260200190565b602060405180830381865afa158015611640573d6000803e3d6000fd5b505050506040513d601f19601f82011682018060405250810190610fb9919061267d565b60158190556040518181527fcc53858d603c20538711044b2559bcaf559f9b12d4867409270b106e91cf216090602001610767565b6000600b54600a54610fb991906126ec565b60006116b561158b565b601054610fb991906126c4565b60006116cc610f8a565b601154610fb991906126c4565b61173a6040518061014001604052806000815260200160008152602001600081526020016000815260200160008152602001600081526020016000815260200160006001600160a01b031681526020016000800b8152602001600081525090565b600083815260016020526040902060068101546001600160a01b03166117c15760405162461bcd60e51b815260206004820152603660248201527f5472616465506169723a3a676574506f736974696f6e44657461696c733a20506044820152751bdcda5d1a5bdb88191bd95cc81b9bdd08195e1a5cdd60521b6064820152608401610861565b60405180610140016040528085815260200182600001548152602001826001015481526020018260020154815260200182600301548152602001620f4240612710846001015485600401546118146116ab565b61181e91906126ec565b61182891906125f9565b6118329190612696565b61183c9190612696565b8152602001620f42406127108460010154856005015461185a6116c2565b61186491906126ec565b61186e91906125f9565b6118789190612696565b6118829190612696565b815260068301546001600160a01b0381166020830152600160a01b900460000b60408201526060016118b48686611a33565b90529150505b92915050565b60065460075460095460405163052571af60e51b81526004810192909252602482015260009182916001600160a01b039091169063a4ae35e090604401608060405180830381865afa15801561191a573d6000803e3d6000fd5b505050506040513d601f19601f8201168201806040525081019061193e919061275b565b90506000816000015160070b136119bd5760405162461bcd60e51b815260206004820152603c60248201527f5472616465506169723a3a5f67657450726963653a204661696c656420746f2060448201527f6665746368207468652063757272656e74207072696365446174612e000000006064820152608401610861565b6000816040015160030b13156119ff5760175460408201516119e69063ffffffff16600a6128d6565b82516119f5919060070b6125f9565b61151e91906125f9565b6040810151611a10906000196128e2565b611a219063ffffffff16600a6128d6565b6017548251611514919060070b6125f9565b600082815260016020526040812060175460028201548391907f0000000000000000000000000000000000000000000000000000000000000000907f000000000000000000000000000000000000000000000000000000000000000090611a9b9088906125f9565b611aa591906125f9565b611aaf9190612696565b611ab99190612696565b60068301546001840154919250600091600160a01b909104820b90611ade90846126ec565b611ae891906125f9565b90506000611af584611dbf565b90506000611b0285611e02565b905060008183858860000154611b1891906126c4565b611b2291906126ec565b611b2c91906126ec565b90506000811215611b4657600096505050505050506118ba565b98975050505050505050565b600019600082900b01611b7c5781600a6000828254611b7191906126c4565b90915550610f869050565b6001600082900b01610f865781600b6000828254611b9a91906126c4565b90915550505050565b600019600082900b01611bc25781600c6000828254611b7191906126c4565b6001600082900b01610f865781600d6000828254611b9a91906126c4565b600019600082900b01611bff5781600e6000828254611b7191906126c4565b6001600082900b01610f865781600f6000828254611b9a91906126c4565b6040516001600160a01b038316602482015260448101829052611c8090849063a9059cbb60e01b906064015b60408051601f198184030181529190526020810180516001600160e01b03166001600160e01b031990931692909217909152611fe6565b505050565b6000611c8f611e89565b6005546040516370a0823160e01b81523060048201529192506000916001600160a01b03909116906370a0823190602401602060405180830381865afa158015611cdd573d6000803e3d6000fd5b505050506040513d601f19601f82011682018060405250810190611d01919061267d565b90506000611d0d610fbe565b90506000831315611d2557611d2283826126c4565b90505b6000611d3183836126ec565b90506000811315611d9d576004805460405163047cbf1d60e51b81529182018390526001600160a01b031690638f97e3a090602401600060405180830381600087803b158015611d8057600080fd5b505af1158015611d94573d6000803e3d6000fd5b50505050611db9565b600454611db9906001600160a01b03166109aa836000196125f9565b50505050565b6000620f424061271083600101548460040154611dda6116ab565b611de491906126ec565b611dee91906125f9565b611df89190612696565b6118ba9190612696565b6000620f424061271083600101548460050154611e1d6116c2565b611e2791906126ec565b6006860154611de49190600160a01b900460000b6125f9565b60009081526001602081905260408220828155908101829055600281018290556003810182905560048101829055600581019190915560060180546001600160a81b0319169055565b600080611e946118c0565b905060006017547f00000000000000000000000000000000000000000000000000000000000000007f000000000000000000000000000000000000000000000000000000000000000084600c54611eeb91906125f9565b611ef591906125f9565b611eff9190612696565b611f099190612696565b905060006017547f00000000000000000000000000000000000000000000000000000000000000007f000000000000000000000000000000000000000000000000000000000000000085600d54611f6091906125f9565b611f6a91906125f9565b611f749190612696565b611f7e9190612696565b905080600b54600a5484611f9291906126ec565b611f9c91906126c4565b611fa691906126ec565b935050505090565b6040516001600160a01b0380851660248301528316604482015260648101829052611db99085906323b872dd60e01b90608401611c49565b600061203b826040518060400160405280602081526020017f5361666545524332303a206c6f772d6c6576656c2063616c6c206661696c6564815250856001600160a01b03166120bb9092919063ffffffff16565b905080516000148061205c57508080602001905181019061205c9190612902565b611c805760405162461bcd60e51b815260206004820152602a60248201527f5361666545524332303a204552433230206f7065726174696f6e20646964206e6044820152691bdd081cdd58d8d9595960b21b6064820152608401610861565b60606120ca84846000856120d2565b949350505050565b6060824710156121335760405162461bcd60e51b815260206004820152602660248201527f416464726573733a20696e73756666696369656e742062616c616e636520666f6044820152651c8818d85b1b60d21b6064820152608401610861565b600080866001600160a01b0316858760405161214f9190612924565b60006040518083038185875af1925050503d806000811461218c576040519150601f19603f3d011682016040523d82523d6000602084013e612191565b606091505b50915091506121a2878383876121ad565b979650505050505050565b6060831561221c578251600003612215576001600160a01b0385163b6122155760405162461bcd60e51b815260206004820152601d60248201527f416464726573733a2063616c6c20746f206e6f6e2d636f6e74726163740000006044820152606401610861565b50816120ca565b6120ca83838151156122315781518083602001fd5b8060405162461bcd60e51b81526004016108619190612940565b60006020828403121561225d57600080fd5b5035919050565b634e487b7160e01b600052604160045260246000fd5b604051601f8201601f1916810167ffffffffffffffff811182821017156122a3576122a3612264565b604052919050565b6000601f83818401126122bd57600080fd5b8235602067ffffffffffffffff808311156122da576122da612264565b8260051b6122e983820161227a565b938452868101830193838101908986111561230357600080fd5b84890192505b85831015612393578235848111156123215760008081fd5b8901603f81018b136123335760008081fd5b8581013560408682111561234957612349612264565b61235a828b01601f1916890161227a565b8281528d8284860101111561236f5760008081fd5b828285018a8301376000928101890192909252508352509184019190840190612309565b9998505050505050505050565b600080604083850312156123b357600080fd5b82359150602083013567ffffffffffffffff8111156123d157600080fd5b6123dd858286016122ab565b9150509250929050565b6000602082840312156123f957600080fd5b813567ffffffffffffffff81111561241057600080fd5b6120ca848285016122ab565b6000806000806080858703121561243257600080fd5b843593506020850135925060408501358060000b811461245157600080fd5b9150606085013567ffffffffffffffff81111561246d57600080fd5b612479878288016122ab565b91505092959194509250565b6000806040838503121561249857600080fd5b50508035926020909101359150565b600061014082019050825182526020830151602083015260408301516040830152606083015160608301526080830151608083015260a083015160a083015260c083015160c083015260e083015161250a60e08401826001600160a01b03169052565b50610100808401516125208285018260000b9052565b505061012092830151919092015290565b60005b8381101561254c578181015183820152602001612534565b50506000910152565b6000815180845261256d816020860160208601612531565b601f01601f19169290920160200192915050565b6000602080830181845280855180835260408601915060408160051b870101925083870160005b828110156125d657603f198886030184526125c4858351612555565b945092850192908501906001016125a8565b5092979650505050505050565b634e487b7160e01b600052601160045260246000fd5b80820260008212600160ff1b84141615612615576126156125e3565b81810583148215176118ba576118ba6125e3565b818103818111156118ba576118ba6125e3565b80820281158282048414176118ba576118ba6125e3565b634e487b7160e01b600052601260045260246000fd5b60008261267857612678612653565b500490565b60006020828403121561268f57600080fd5b5051919050565b6000826126a5576126a5612653565b600160ff1b8214600019841416156126bf576126bf6125e3565b500590565b80820182811260008312801582168215821617156126e4576126e46125e3565b505092915050565b818103600083128015838313168383128216171561270c5761270c6125e3565b5092915050565b600060018201612725576127256125e3565b5060010190565b808201808211156118ba576118ba6125e3565b6000600160ff1b8201612754576127546125e3565b5060000390565b60006080828403121561276d57600080fd5b6040516080810167ffffffffffffffff828210818311171561279157612791612264565b81604052845191508160070b82146127a857600080fd5b90825260208401519080821682146127bf57600080fd5b5060208201526040830151600381900b81146127da57600080fd5b60408201526060928301519281019290925250919050565b600181815b8085111561282d578160001904821115612813576128136125e3565b8085161561282057918102915b93841c93908002906127f7565b509250929050565b600082612844575060016118ba565b81612851575060006118ba565b816001811461286757600281146128715761288d565b60019150506118ba565b60ff841115612882576128826125e3565b50506001821b6118ba565b5060208310610133831016604e8410600b84101617156128b0575081810a6118ba565b6128ba83836127f2565b80600019048211156128ce576128ce6125e3565b029392505050565b6000610aa88383612835565b60008260030b8260030b028060030b915080821461270c5761270c6125e3565b60006020828403121561291457600080fd5b81518015158114610aa857600080fd5b60008251612936818460208701612531565b9190910192915050565b602081526000610aa8602083018461255556fea26469706673582212202d74a5ae2de9a7b2e843c8965aa62d2262add87e26424460a30fc0c4f8197ce964736f6c63430008140033","linkReferences":{}},"methodIdentifiers":{"borrowFeeIntegral()":"a3e22f10","closeFee()":"70492cbf","closePosition(uint256,bytes[])":"247d7b65","collateralToken()":"b2016bd4","controller()":"f77c4791","excessOpenInterest()":"714aee7a","fundingFeeIntegral()":"1d3dc78a","getBorrowRate()":"ba1c5e80","getFundingRate()":"95196f7e","getPositionDetails(uint256,int256)":"f6f52ecd","getUnrealizedPnL(bytes[])":"236b089f","lastUpdateTimestamp()":"14bcec9f","liquidatePosition(uint256,bytes[])":"10b9e628","liquidatorReward()":"b10a821e","liquidityPool()":"665a11ca","longCollateral()":"cb29bb9a","longOpenInterest()":"97fb7289","longTotalAssets()":"f8cd29b8","maxFundingRate()":"db16e989","maxPriceAge()":"1584410a","maxSkew()":"50ec40e0","openFee()":"b7845073","openPosition(uint256,uint256,int8,bytes[])":"936ea10d","positions(uint256)":"99fbab88","priceFeedUpdateFee()":"ae60efb3","pyth()":"f98d06f0","pythId()":"c6db096b","setCloseFee(int256)":"030e0bb7","setMaxFundingRate(int256)":"666ce4eb","setMaxPriceAge(uint256)":"56447ce8","setMaxSkew(int256)":"45fa520d","setOpenFee(int256)":"ccf98c07","shortCollateral()":"870dcaeb","shortOpenInterest()":"f67908b5","shortTotalAssets()":"845f6b03","syncUnrealizedPnL(bytes[])":"49c3d2d3","totalBorrowFeeIntegral()":"d89fd4fd","totalCollateral()":"4ac8eb5f","totalFundingFeeIntegral()":"ebeb55ac","totalOpenInterest()":"d468e2a9","unrealizedBorrowFeeIntegral()":"b20b5f82","unrealizedFundingFeeIntegral()":"4a654fa5","updateFeeIntegrals()":"b46004a9"},"id":54}